{
	"contracts/CrowdFoundry.sol": {
		"CrowdFoundry": {
			"abi": [
				{
					"inputs": [],
					"name": "SAVEDCAT",
					"outputs": [
						{
							"internalType": "uint256",
							"name": "",
							"type": "uint256"
						}
					],
					"stateMutability": "view",
					"type": "function"
				},
				{
					"inputs": [],
					"name": "SAVEDDOG",
					"outputs": [
						{
							"internalType": "uint256",
							"name": "",
							"type": "uint256"
						}
					],
					"stateMutability": "view",
					"type": "function"
				},
				{
					"inputs": [],
					"name": "SAVEDPIG",
					"outputs": [
						{
							"internalType": "uint256",
							"name": "",
							"type": "uint256"
						}
					],
					"stateMutability": "view",
					"type": "function"
				},
				{
					"inputs": [],
					"name": "checkSavedPet",
					"outputs": [],
					"stateMutability": "nonpayable",
					"type": "function"
				},
				{
					"inputs": [
						{
							"internalType": "uint256",
							"name": "",
							"type": "uint256"
						}
					],
					"name": "depositForCat",
					"outputs": [],
					"stateMutability": "payable",
					"type": "function"
				},
				{
					"inputs": [
						{
							"internalType": "uint256",
							"name": "Dog",
							"type": "uint256"
						}
					],
					"name": "depositForDog",
					"outputs": [],
					"stateMutability": "payable",
					"type": "function"
				},
				{
					"inputs": [
						{
							"internalType": "uint256",
							"name": "Pig",
							"type": "uint256"
						}
					],
					"name": "depositForPig",
					"outputs": [],
					"stateMutability": "payable",
					"type": "function"
				},
				{
					"inputs": [
						{
							"internalType": "uint256",
							"name": "",
							"type": "uint256"
						}
					],
					"name": "pet",
					"outputs": [
						{
							"internalType": "uint256",
							"name": "cat",
							"type": "uint256"
						},
						{
							"internalType": "uint256",
							"name": "dog",
							"type": "uint256"
						},
						{
							"internalType": "uint256",
							"name": "SAVEDCATANIMAL",
							"type": "uint256"
						},
						{
							"internalType": "uint256",
							"name": "SAVEDDOGANIMAL",
							"type": "uint256"
						},
						{
							"internalType": "uint256",
							"name": "totalcat",
							"type": "uint256"
						},
						{
							"internalType": "uint256",
							"name": "totaldog",
							"type": "uint256"
						}
					],
					"stateMutability": "view",
					"type": "function"
				},
				{
					"inputs": [
						{
							"internalType": "uint256",
							"name": "cat",
							"type": "uint256"
						},
						{
							"internalType": "uint256",
							"name": "",
							"type": "uint256"
						}
					],
					"name": "savedcat",
					"outputs": [
						{
							"internalType": "uint256",
							"name": "cat",
							"type": "uint256"
						},
						{
							"internalType": "uint256",
							"name": "dog",
							"type": "uint256"
						},
						{
							"internalType": "uint256",
							"name": "SAVEDCATANIMAL",
							"type": "uint256"
						},
						{
							"internalType": "uint256",
							"name": "SAVEDDOGANIMAL",
							"type": "uint256"
						},
						{
							"internalType": "uint256",
							"name": "totalcat",
							"type": "uint256"
						},
						{
							"internalType": "uint256",
							"name": "totaldog",
							"type": "uint256"
						}
					],
					"stateMutability": "view",
					"type": "function"
				},
				{
					"inputs": [],
					"name": "totalcat",
					"outputs": [
						{
							"internalType": "uint256",
							"name": "",
							"type": "uint256"
						}
					],
					"stateMutability": "view",
					"type": "function"
				},
				{
					"inputs": [],
					"name": "totaldog",
					"outputs": [
						{
							"internalType": "uint256",
							"name": "",
							"type": "uint256"
						}
					],
					"stateMutability": "view",
					"type": "function"
				}
			],
			"devdoc": {
				"custom:dev-run-script": "./scripts/deploy_with_ethers.ts",
				"details": "Store & retrieve value in a variable",
				"kind": "dev",
				"methods": {},
				"title": "Storage",
				"version": 1
			},
			"evm": {
				"assembly": "    /* \"contracts/CrowdFoundry.sol\":199:1966  contract CrowdFoundry {... */\n  mstore(0x40, 0x80)\n  callvalue\n  dup1\n  iszero\n  tag_1\n  jumpi\n  0x00\n  dup1\n  revert\ntag_1:\n  pop\n  dataSize(sub_0)\n  dup1\n  dataOffset(sub_0)\n  0x00\n  codecopy\n  0x00\n  return\nstop\n\nsub_0: assembly {\n        /* \"contracts/CrowdFoundry.sol\":199:1966  contract CrowdFoundry {... */\n      mstore(0x40, 0x80)\n      jumpi(tag_1, lt(calldatasize, 0x04))\n      shr(0xe0, calldataload(0x00))\n      dup1\n      0x76cbe706\n      gt\n      tag_13\n      jumpi\n      dup1\n      0x76cbe706\n      eq\n      tag_7\n      jumpi\n      dup1\n      0x9a1f4616\n      eq\n      tag_8\n      jumpi\n      dup1\n      0x9d8d7a04\n      eq\n      tag_9\n      jumpi\n      dup1\n      0xa07d7972\n      eq\n      tag_10\n      jumpi\n      dup1\n      0xc36b61ee\n      eq\n      tag_11\n      jumpi\n      dup1\n      0xf1f400ed\n      eq\n      tag_12\n      jumpi\n      jump(tag_1)\n    tag_13:\n      dup1\n      0x0665fa8d\n      eq\n      tag_2\n      jumpi\n      dup1\n      0x0d9234d6\n      eq\n      tag_3\n      jumpi\n      dup1\n      0x21ea57c3\n      eq\n      tag_4\n      jumpi\n      dup1\n      0x5539c2ea\n      eq\n      tag_5\n      jumpi\n      dup1\n      0x58435f5b\n      eq\n      tag_6\n      jumpi\n    tag_1:\n      0x00\n      dup1\n      revert\n        /* \"contracts/CrowdFoundry.sol\":832:1211  function checkSavedPet() external{... */\n    tag_2:\n      callvalue\n      dup1\n      iszero\n      tag_14\n      jumpi\n      0x00\n      dup1\n      revert\n    tag_14:\n      pop\n      tag_15\n      tag_16\n      jump\t// in\n    tag_15:\n      stop\n        /* \"contracts/CrowdFoundry.sol\":341:364  uint256 public SAVEDDOG */\n    tag_3:\n      callvalue\n      dup1\n      iszero\n      tag_17\n      jumpi\n      0x00\n      dup1\n      revert\n    tag_17:\n      pop\n      tag_18\n      tag_19\n      jump\t// in\n    tag_18:\n      mload(0x40)\n      tag_20\n      swap2\n      swap1\n      tag_21\n      jump\t// in\n    tag_20:\n      mload(0x40)\n      dup1\n      swap2\n      sub\n      swap1\n      return\n        /* \"contracts/CrowdFoundry.sol\":283:306  uint256 public SAVEDPIG */\n    tag_4:\n      callvalue\n      dup1\n      iszero\n      tag_22\n      jumpi\n      0x00\n      dup1\n      revert\n    tag_22:\n      pop\n      tag_23\n      tag_24\n      jump\t// in\n    tag_23:\n      mload(0x40)\n      tag_25\n      swap2\n      swap1\n      tag_21\n      jump\t// in\n    tag_25:\n      mload(0x40)\n      dup1\n      swap2\n      sub\n      swap1\n      return\n        /* \"contracts/CrowdFoundry.sol\":1530:1849  function depositForDog(uint256 Dog) external payable {... */\n    tag_5:\n      tag_26\n      0x04\n      dup1\n      calldatasize\n      sub\n      dup2\n      add\n      swap1\n      tag_27\n      swap2\n      swap1\n      tag_28\n      jump\t// in\n    tag_27:\n      tag_29\n      jump\t// in\n    tag_26:\n      stop\n        /* \"contracts/CrowdFoundry.sol\":370:393  uint256 public totalcat */\n    tag_6:\n      callvalue\n      dup1\n      iszero\n      tag_30\n      jumpi\n      0x00\n      dup1\n      revert\n    tag_30:\n      pop\n      tag_31\n      tag_32\n      jump\t// in\n    tag_31:\n      mload(0x40)\n      tag_33\n      swap2\n      swap1\n      tag_21\n      jump\t// in\n    tag_33:\n      mload(0x40)\n      dup1\n      swap2\n      sub\n      swap1\n      return\n        /* \"contracts/CrowdFoundry.sol\":312:335  uint256 public SAVEDCAT */\n    tag_7:\n      callvalue\n      dup1\n      iszero\n      tag_34\n      jumpi\n      0x00\n      dup1\n      revert\n    tag_34:\n      pop\n      tag_35\n      tag_36\n      jump\t// in\n    tag_35:\n      mload(0x40)\n      tag_37\n      swap2\n      swap1\n      tag_21\n      jump\t// in\n    tag_37:\n      mload(0x40)\n      dup1\n      swap2\n      sub\n      swap1\n      return\n        /* \"contracts/CrowdFoundry.sol\":399:422  uint256 public totaldog */\n    tag_8:\n      callvalue\n      dup1\n      iszero\n      tag_38\n      jumpi\n      0x00\n      dup1\n      revert\n    tag_38:\n      pop\n      tag_39\n      tag_40\n      jump\t// in\n    tag_39:\n      mload(0x40)\n      tag_41\n      swap2\n      swap1\n      tag_21\n      jump\t// in\n    tag_41:\n      mload(0x40)\n      dup1\n      swap2\n      sub\n      swap1\n      return\n        /* \"contracts/CrowdFoundry.sol\":1854:1959  function depositForPig(uint256 Pig) external payable {... */\n    tag_9:\n      tag_42\n      0x04\n      dup1\n      calldatasize\n      sub\n      dup2\n      add\n      swap1\n      tag_43\n      swap2\n      swap1\n      tag_28\n      jump\t// in\n    tag_43:\n      tag_44\n      jump\t// in\n    tag_42:\n      stop\n        /* \"contracts/CrowdFoundry.sol\":637:656  Animal[] public pet */\n    tag_10:\n      callvalue\n      dup1\n      iszero\n      tag_45\n      jumpi\n      0x00\n      dup1\n      revert\n    tag_45:\n      pop\n      tag_46\n      0x04\n      dup1\n      calldatasize\n      sub\n      dup2\n      add\n      swap1\n      tag_47\n      swap2\n      swap1\n      tag_28\n      jump\t// in\n    tag_47:\n      tag_48\n      jump\t// in\n    tag_46:\n      mload(0x40)\n      tag_49\n      swap7\n      swap6\n      swap5\n      swap4\n      swap3\n      swap2\n      swap1\n      tag_50\n      jump\t// in\n    tag_49:\n      mload(0x40)\n      dup1\n      swap2\n      sub\n      swap1\n      return\n        /* \"contracts/CrowdFoundry.sol\":582:630  mapping(uint256 cat => Animal[]) public savedcat */\n    tag_11:\n      callvalue\n      dup1\n      iszero\n      tag_51\n      jumpi\n      0x00\n      dup1\n      revert\n    tag_51:\n      pop\n      tag_52\n      0x04\n      dup1\n      calldatasize\n      sub\n      dup2\n      add\n      swap1\n      tag_53\n      swap2\n      swap1\n      tag_54\n      jump\t// in\n    tag_53:\n      tag_55\n      jump\t// in\n    tag_52:\n      mload(0x40)\n      tag_56\n      swap7\n      swap6\n      swap5\n      swap4\n      swap3\n      swap2\n      swap1\n      tag_50\n      jump\t// in\n    tag_56:\n      mload(0x40)\n      dup1\n      swap2\n      sub\n      swap1\n      return\n        /* \"contracts/CrowdFoundry.sol\":1217:1525  function depositForCat(uint256) external payable {... */\n    tag_12:\n      tag_57\n      0x04\n      dup1\n      calldatasize\n      sub\n      dup2\n      add\n      swap1\n      tag_58\n      swap2\n      swap1\n      tag_28\n      jump\t// in\n    tag_58:\n      tag_59\n      jump\t// in\n    tag_57:\n      stop\n        /* \"contracts/CrowdFoundry.sol\":832:1211  function checkSavedPet() external{... */\n    tag_16:\n        /* \"contracts/CrowdFoundry.sol\":872:892  Animal memory animal */\n      0x00\n        /* \"contracts/CrowdFoundry.sol\":895:947  Animal(cat,dog,SAVEDDOG, SAVEDCAT,totalcat,totaldog) */\n      mload(0x40)\n      dup1\n      0xc0\n      add\n      0x40\n      mstore\n      dup1\n        /* \"contracts/CrowdFoundry.sol\":902:905  cat */\n      sload(0x00)\n        /* \"contracts/CrowdFoundry.sol\":895:947  Animal(cat,dog,SAVEDDOG, SAVEDCAT,totalcat,totaldog) */\n      dup2\n      mstore\n      0x20\n      add\n        /* \"contracts/CrowdFoundry.sol\":906:909  dog */\n      sload(0x01)\n        /* \"contracts/CrowdFoundry.sol\":895:947  Animal(cat,dog,SAVEDDOG, SAVEDCAT,totalcat,totaldog) */\n      dup2\n      mstore\n      0x20\n      add\n        /* \"contracts/CrowdFoundry.sol\":910:918  SAVEDDOG */\n      sload(0x05)\n        /* \"contracts/CrowdFoundry.sol\":895:947  Animal(cat,dog,SAVEDDOG, SAVEDCAT,totalcat,totaldog) */\n      dup2\n      mstore\n      0x20\n      add\n        /* \"contracts/CrowdFoundry.sol\":920:928  SAVEDCAT */\n      sload(0x04)\n        /* \"contracts/CrowdFoundry.sol\":895:947  Animal(cat,dog,SAVEDDOG, SAVEDCAT,totalcat,totaldog) */\n      dup2\n      mstore\n      0x20\n      add\n        /* \"contracts/CrowdFoundry.sol\":929:937  totalcat */\n      sload(0x06)\n        /* \"contracts/CrowdFoundry.sol\":895:947  Animal(cat,dog,SAVEDDOG, SAVEDCAT,totalcat,totaldog) */\n      dup2\n      mstore\n      0x20\n      add\n        /* \"contracts/CrowdFoundry.sol\":938:946  totaldog */\n      sload(0x07)\n        /* \"contracts/CrowdFoundry.sol\":895:947  Animal(cat,dog,SAVEDDOG, SAVEDCAT,totalcat,totaldog) */\n      dup2\n      mstore\n      pop\n        /* \"contracts/CrowdFoundry.sol\":872:947  Animal memory animal = Animal(cat,dog,SAVEDDOG, SAVEDCAT,totalcat,totaldog) */\n      swap1\n      pop\n        /* \"contracts/CrowdFoundry.sol\":954:968  uint256  mydog */\n      0x00\n        /* \"contracts/CrowdFoundry.sol\":971:977  animal */\n      dup2\n        /* \"contracts/CrowdFoundry.sol\":971:981  animal.dog */\n      0x20\n      add\n      mload\n        /* \"contracts/CrowdFoundry.sol\":954:981  uint256  mydog = animal.dog */\n      swap1\n      pop\n        /* \"contracts/CrowdFoundry.sol\":988:1007  uint256  animalsdog */\n      0x00\n        /* \"contracts/CrowdFoundry.sol\":1010:1016  animal */\n      dup3\n        /* \"contracts/CrowdFoundry.sol\":1010:1031  animal.SAVEDDOGANIMAL */\n      0x60\n      add\n      mload\n        /* \"contracts/CrowdFoundry.sol\":988:1031  uint256  animalsdog = animal.SAVEDDOGANIMAL */\n      swap1\n      pop\n        /* \"contracts/CrowdFoundry.sol\":1046:1056  animalsdog */\n      dup1\n        /* \"contracts/CrowdFoundry.sol\":1038:1056  mydog = animalsdog */\n      swap2\n      pop\n        /* \"contracts/CrowdFoundry.sol\":1064:1077  uint256 mycat */\n      0x00\n        /* \"contracts/CrowdFoundry.sol\":1080:1086  animal */\n      dup4\n        /* \"contracts/CrowdFoundry.sol\":1080:1090  animal.cat */\n      0x00\n      add\n      mload\n        /* \"contracts/CrowdFoundry.sol\":1064:1090  uint256 mycat = animal.cat */\n      swap1\n      pop\n        /* \"contracts/CrowdFoundry.sol\":1097:1115  uint256 catanimals */\n      0x00\n        /* \"contracts/CrowdFoundry.sol\":1117:1123  animal */\n      dup5\n        /* \"contracts/CrowdFoundry.sol\":1117:1138  animal.SAVEDCATANIMAL */\n      0x40\n      add\n      mload\n        /* \"contracts/CrowdFoundry.sol\":1097:1138  uint256 catanimals =animal.SAVEDCATANIMAL */\n      swap1\n      pop\n        /* \"contracts/CrowdFoundry.sol\":1154:1164  catanimals */\n      dup1\n        /* \"contracts/CrowdFoundry.sol\":1146:1164  mycat = catanimals */\n      swap2\n      pop\n        /* \"contracts/CrowdFoundry.sol\":1173:1176  pet */\n      0x09\n        /* \"contracts/CrowdFoundry.sol\":1182:1188  animal */\n      dup6\n        /* \"contracts/CrowdFoundry.sol\":1173:1189  pet.push(animal) */\n      swap1\n      dup1\n      0x01\n      dup2\n      sload\n      add\n      dup1\n      dup3\n      sstore\n      dup1\n      swap2\n      pop\n      pop\n      0x01\n      swap1\n      sub\n      swap1\n      0x00\n      mstore\n      keccak256(0x00, 0x20)\n      swap1\n      0x06\n      mul\n      add\n      0x00\n      swap1\n      swap2\n      swap1\n      swap2\n      swap1\n      swap2\n      pop\n      0x00\n      dup3\n      add\n      mload\n      dup2\n      0x00\n      add\n      sstore\n      0x20\n      dup3\n      add\n      mload\n      dup2\n      0x01\n      add\n      sstore\n      0x40\n      dup3\n      add\n      mload\n      dup2\n      0x02\n      add\n      sstore\n      0x60\n      dup3\n      add\n      mload\n      dup2\n      0x03\n      add\n      sstore\n      0x80\n      dup3\n      add\n      mload\n      dup2\n      0x04\n      add\n      sstore\n      0xa0\n      dup3\n      add\n      mload\n      dup2\n      0x05\n      add\n      sstore\n      pop\n      pop\n        /* \"contracts/CrowdFoundry.sol\":865:1211  {... */\n      pop\n      pop\n      pop\n      pop\n      pop\n        /* \"contracts/CrowdFoundry.sol\":832:1211  function checkSavedPet() external{... */\n      jump\t// out\n        /* \"contracts/CrowdFoundry.sol\":341:364  uint256 public SAVEDDOG */\n    tag_19:\n      sload(0x05)\n      dup2\n      jump\t// out\n        /* \"contracts/CrowdFoundry.sol\":283:306  uint256 public SAVEDPIG */\n    tag_24:\n      sload(0x03)\n      dup2\n      jump\t// out\n        /* \"contracts/CrowdFoundry.sol\":1530:1849  function depositForDog(uint256 Dog) external payable {... */\n    tag_29:\n        /* \"contracts/CrowdFoundry.sol\":1612:1632  Animal memory animal */\n      0x00\n        /* \"contracts/CrowdFoundry.sol\":1635:1687  Animal(cat,dog,SAVEDDOG, SAVEDCAT,totalcat,totaldog) */\n      mload(0x40)\n      dup1\n      0xc0\n      add\n      0x40\n      mstore\n      dup1\n        /* \"contracts/CrowdFoundry.sol\":1642:1645  cat */\n      sload(0x00)\n        /* \"contracts/CrowdFoundry.sol\":1635:1687  Animal(cat,dog,SAVEDDOG, SAVEDCAT,totalcat,totaldog) */\n      dup2\n      mstore\n      0x20\n      add\n        /* \"contracts/CrowdFoundry.sol\":1646:1649  dog */\n      sload(0x01)\n        /* \"contracts/CrowdFoundry.sol\":1635:1687  Animal(cat,dog,SAVEDDOG, SAVEDCAT,totalcat,totaldog) */\n      dup2\n      mstore\n      0x20\n      add\n        /* \"contracts/CrowdFoundry.sol\":1650:1658  SAVEDDOG */\n      sload(0x05)\n        /* \"contracts/CrowdFoundry.sol\":1635:1687  Animal(cat,dog,SAVEDDOG, SAVEDCAT,totalcat,totaldog) */\n      dup2\n      mstore\n      0x20\n      add\n        /* \"contracts/CrowdFoundry.sol\":1660:1668  SAVEDCAT */\n      sload(0x04)\n        /* \"contracts/CrowdFoundry.sol\":1635:1687  Animal(cat,dog,SAVEDDOG, SAVEDCAT,totalcat,totaldog) */\n      dup2\n      mstore\n      0x20\n      add\n        /* \"contracts/CrowdFoundry.sol\":1669:1677  totalcat */\n      sload(0x06)\n        /* \"contracts/CrowdFoundry.sol\":1635:1687  Animal(cat,dog,SAVEDDOG, SAVEDCAT,totalcat,totaldog) */\n      dup2\n      mstore\n      0x20\n      add\n        /* \"contracts/CrowdFoundry.sol\":1678:1686  totaldog */\n      sload(0x07)\n        /* \"contracts/CrowdFoundry.sol\":1635:1687  Animal(cat,dog,SAVEDDOG, SAVEDCAT,totalcat,totaldog) */\n      dup2\n      mstore\n      pop\n        /* \"contracts/CrowdFoundry.sol\":1612:1687  Animal memory animal = Animal(cat,dog,SAVEDDOG, SAVEDCAT,totalcat,totaldog) */\n      swap1\n      pop\n        /* \"contracts/CrowdFoundry.sol\":1694:1708  uint256  mydog */\n      0x00\n        /* \"contracts/CrowdFoundry.sol\":1711:1717  animal */\n      dup2\n        /* \"contracts/CrowdFoundry.sol\":1711:1721  animal.dog */\n      0x20\n      add\n      mload\n        /* \"contracts/CrowdFoundry.sol\":1694:1721  uint256  mydog = animal.dog */\n      swap1\n      pop\n        /* \"contracts/CrowdFoundry.sol\":1728:1747  uint256  animalsdog */\n      0x00\n        /* \"contracts/CrowdFoundry.sol\":1750:1756  animal */\n      dup3\n        /* \"contracts/CrowdFoundry.sol\":1750:1771  animal.SAVEDDOGANIMAL */\n      0x60\n      add\n        /* \"contracts/CrowdFoundry.sol\":1750:1773  animal.SAVEDDOGANIMAL++ */\n      dup1\n      mload\n      dup1\n      swap2\n      swap1\n      tag_63\n      swap1\n      tag_64\n      jump\t// in\n    tag_63:\n      dup2\n      mstore\n      pop\n        /* \"contracts/CrowdFoundry.sol\":1728:1773  uint256  animalsdog = animal.SAVEDDOGANIMAL++ */\n      swap1\n      pop\n        /* \"contracts/CrowdFoundry.sol\":1780:1788  SAVEDDOG */\n      0x05\n      0x00\n        /* \"contracts/CrowdFoundry.sol\":1780:1790  SAVEDDOG++ */\n      dup2\n      sload\n      dup1\n      swap3\n      swap2\n      swap1\n      tag_65\n      swap1\n      tag_64\n      jump\t// in\n    tag_65:\n      swap2\n      swap1\n      pop\n      sstore\n      pop\n        /* \"contracts/CrowdFoundry.sol\":1805:1815  animalsdog */\n      dup1\n        /* \"contracts/CrowdFoundry.sol\":1797:1815  mydog = animalsdog */\n      swap2\n      pop\n        /* \"contracts/CrowdFoundry.sol\":1826:1829  pet */\n      0x09\n        /* \"contracts/CrowdFoundry.sol\":1835:1841  animal */\n      dup4\n        /* \"contracts/CrowdFoundry.sol\":1826:1842  pet.push(animal) */\n      swap1\n      dup1\n      0x01\n      dup2\n      sload\n      add\n      dup1\n      dup3\n      sstore\n      dup1\n      swap2\n      pop\n      pop\n      0x01\n      swap1\n      sub\n      swap1\n      0x00\n      mstore\n      keccak256(0x00, 0x20)\n      swap1\n      0x06\n      mul\n      add\n      0x00\n      swap1\n      swap2\n      swap1\n      swap2\n      swap1\n      swap2\n      pop\n      0x00\n      dup3\n      add\n      mload\n      dup2\n      0x00\n      add\n      sstore\n      0x20\n      dup3\n      add\n      mload\n      dup2\n      0x01\n      add\n      sstore\n      0x40\n      dup3\n      add\n      mload\n      dup2\n      0x02\n      add\n      sstore\n      0x60\n      dup3\n      add\n      mload\n      dup2\n      0x03\n      add\n      sstore\n      0x80\n      dup3\n      add\n      mload\n      dup2\n      0x04\n      add\n      sstore\n      0xa0\n      dup3\n      add\n      mload\n      dup2\n      0x05\n      add\n      sstore\n      pop\n      pop\n        /* \"contracts/CrowdFoundry.sol\":1583:1849  {... */\n      pop\n      pop\n      pop\n        /* \"contracts/CrowdFoundry.sol\":1530:1849  function depositForDog(uint256 Dog) external payable {... */\n      pop\n      jump\t// out\n        /* \"contracts/CrowdFoundry.sol\":370:393  uint256 public totalcat */\n    tag_32:\n      sload(0x06)\n      dup2\n      jump\t// out\n        /* \"contracts/CrowdFoundry.sol\":312:335  uint256 public SAVEDCAT */\n    tag_36:\n      sload(0x04)\n      dup2\n      jump\t// out\n        /* \"contracts/CrowdFoundry.sol\":399:422  uint256 public totaldog */\n    tag_40:\n      sload(0x07)\n      dup2\n      jump\t// out\n        /* \"contracts/CrowdFoundry.sol\":1854:1959  function depositForPig(uint256 Pig) external payable {... */\n    tag_44:\n        /* \"contracts/CrowdFoundry.sol\":1942:1950  SAVEDPIG */\n      0x03\n      0x00\n        /* \"contracts/CrowdFoundry.sol\":1942:1952  SAVEDPIG++ */\n      dup2\n      sload\n      dup1\n      swap3\n      swap2\n      swap1\n      tag_68\n      swap1\n      tag_64\n      jump\t// in\n    tag_68:\n      swap2\n      swap1\n      pop\n      sstore\n      pop\n        /* \"contracts/CrowdFoundry.sol\":1854:1959  function depositForPig(uint256 Pig) external payable {... */\n      pop\n      jump\t// out\n        /* \"contracts/CrowdFoundry.sol\":637:656  Animal[] public pet */\n    tag_48:\n      0x09\n      dup2\n      dup2\n      sload\n      dup2\n      lt\n      tag_69\n      jumpi\n      0x00\n      dup1\n      revert\n    tag_69:\n      swap1\n      0x00\n      mstore\n      keccak256(0x00, 0x20)\n      swap1\n      0x06\n      mul\n      add\n      0x00\n      swap2\n      pop\n      swap1\n      pop\n      dup1\n      0x00\n      add\n      sload\n      swap1\n      dup1\n      0x01\n      add\n      sload\n      swap1\n      dup1\n      0x02\n      add\n      sload\n      swap1\n      dup1\n      0x03\n      add\n      sload\n      swap1\n      dup1\n      0x04\n      add\n      sload\n      swap1\n      dup1\n      0x05\n      add\n      sload\n      swap1\n      pop\n      dup7\n      jump\t// out\n        /* \"contracts/CrowdFoundry.sol\":582:630  mapping(uint256 cat => Animal[]) public savedcat */\n    tag_55:\n      mstore(0x20, 0x08)\n      dup2\n      0x00\n      mstore\n      keccak256(0x00, 0x40)\n      dup2\n      dup2\n      sload\n      dup2\n      lt\n      tag_71\n      jumpi\n      0x00\n      dup1\n      revert\n    tag_71:\n      swap1\n      0x00\n      mstore\n      keccak256(0x00, 0x20)\n      swap1\n      0x06\n      mul\n      add\n      0x00\n      swap2\n      pop\n      swap2\n      pop\n      pop\n      dup1\n      0x00\n      add\n      sload\n      swap1\n      dup1\n      0x01\n      add\n      sload\n      swap1\n      dup1\n      0x02\n      add\n      sload\n      swap1\n      dup1\n      0x03\n      add\n      sload\n      swap1\n      dup1\n      0x04\n      add\n      sload\n      swap1\n      dup1\n      0x05\n      add\n      sload\n      swap1\n      pop\n      dup7\n      jump\t// out\n        /* \"contracts/CrowdFoundry.sol\":1217:1525  function depositForCat(uint256) external payable {... */\n    tag_59:\n        /* \"contracts/CrowdFoundry.sol\":1296:1316  Animal memory animal */\n      0x00\n        /* \"contracts/CrowdFoundry.sol\":1319:1370  Animal(cat,dog,SAVEDCAT,SAVEDDOG,totalcat,totaldog) */\n      mload(0x40)\n      dup1\n      0xc0\n      add\n      0x40\n      mstore\n      dup1\n        /* \"contracts/CrowdFoundry.sol\":1326:1329  cat */\n      sload(0x00)\n        /* \"contracts/CrowdFoundry.sol\":1319:1370  Animal(cat,dog,SAVEDCAT,SAVEDDOG,totalcat,totaldog) */\n      dup2\n      mstore\n      0x20\n      add\n        /* \"contracts/CrowdFoundry.sol\":1330:1333  dog */\n      sload(0x01)\n        /* \"contracts/CrowdFoundry.sol\":1319:1370  Animal(cat,dog,SAVEDCAT,SAVEDDOG,totalcat,totaldog) */\n      dup2\n      mstore\n      0x20\n      add\n        /* \"contracts/CrowdFoundry.sol\":1334:1342  SAVEDCAT */\n      sload(0x04)\n        /* \"contracts/CrowdFoundry.sol\":1319:1370  Animal(cat,dog,SAVEDCAT,SAVEDDOG,totalcat,totaldog) */\n      dup2\n      mstore\n      0x20\n      add\n        /* \"contracts/CrowdFoundry.sol\":1343:1351  SAVEDDOG */\n      sload(0x05)\n        /* \"contracts/CrowdFoundry.sol\":1319:1370  Animal(cat,dog,SAVEDCAT,SAVEDDOG,totalcat,totaldog) */\n      dup2\n      mstore\n      0x20\n      add\n        /* \"contracts/CrowdFoundry.sol\":1352:1360  totalcat */\n      sload(0x06)\n        /* \"contracts/CrowdFoundry.sol\":1319:1370  Animal(cat,dog,SAVEDCAT,SAVEDDOG,totalcat,totaldog) */\n      dup2\n      mstore\n      0x20\n      add\n        /* \"contracts/CrowdFoundry.sol\":1361:1369  totaldog */\n      sload(0x07)\n        /* \"contracts/CrowdFoundry.sol\":1319:1370  Animal(cat,dog,SAVEDCAT,SAVEDDOG,totalcat,totaldog) */\n      dup2\n      mstore\n      pop\n        /* \"contracts/CrowdFoundry.sol\":1296:1370  Animal memory animal = Animal(cat,dog,SAVEDCAT,SAVEDDOG,totalcat,totaldog) */\n      swap1\n      pop\n        /* \"contracts/CrowdFoundry.sol\":1377:1390  uint256 mycat */\n      0x00\n        /* \"contracts/CrowdFoundry.sol\":1393:1399  animal */\n      dup2\n        /* \"contracts/CrowdFoundry.sol\":1393:1403  animal.cat */\n      0x00\n      add\n      mload\n        /* \"contracts/CrowdFoundry.sol\":1377:1403  uint256 mycat = animal.cat */\n      swap1\n      pop\n        /* \"contracts/CrowdFoundry.sol\":1410:1428  uint256 catanimals */\n      0x00\n        /* \"contracts/CrowdFoundry.sol\":1430:1436  animal */\n      dup3\n        /* \"contracts/CrowdFoundry.sol\":1430:1451  animal.SAVEDCATANIMAL */\n      0x40\n      add\n      mload\n        /* \"contracts/CrowdFoundry.sol\":1410:1451  uint256 catanimals =animal.SAVEDCATANIMAL */\n      swap1\n      pop\n        /* \"contracts/CrowdFoundry.sol\":1459:1467  SAVEDCAT */\n      0x04\n      0x00\n        /* \"contracts/CrowdFoundry.sol\":1459:1469  SAVEDCAT++ */\n      dup2\n      sload\n      dup1\n      swap3\n      swap2\n      swap1\n      tag_74\n      swap1\n      tag_64\n      jump\t// in\n    tag_74:\n      swap2\n      swap1\n      pop\n      sstore\n      pop\n        /* \"contracts/CrowdFoundry.sol\":1484:1494  catanimals */\n      dup1\n        /* \"contracts/CrowdFoundry.sol\":1476:1494  mycat = catanimals */\n      swap2\n      pop\n        /* \"contracts/CrowdFoundry.sol\":1501:1504  pet */\n      0x09\n        /* \"contracts/CrowdFoundry.sol\":1510:1516  animal */\n      dup4\n        /* \"contracts/CrowdFoundry.sol\":1501:1517  pet.push(animal) */\n      swap1\n      dup1\n      0x01\n      dup2\n      sload\n      add\n      dup1\n      dup3\n      sstore\n      dup1\n      swap2\n      pop\n      pop\n      0x01\n      swap1\n      sub\n      swap1\n      0x00\n      mstore\n      keccak256(0x00, 0x20)\n      swap1\n      0x06\n      mul\n      add\n      0x00\n      swap1\n      swap2\n      swap1\n      swap2\n      swap1\n      swap2\n      pop\n      0x00\n      dup3\n      add\n      mload\n      dup2\n      0x00\n      add\n      sstore\n      0x20\n      dup3\n      add\n      mload\n      dup2\n      0x01\n      add\n      sstore\n      0x40\n      dup3\n      add\n      mload\n      dup2\n      0x02\n      add\n      sstore\n      0x60\n      dup3\n      add\n      mload\n      dup2\n      0x03\n      add\n      sstore\n      0x80\n      dup3\n      add\n      mload\n      dup2\n      0x04\n      add\n      sstore\n      0xa0\n      dup3\n      add\n      mload\n      dup2\n      0x05\n      add\n      sstore\n      pop\n      pop\n        /* \"contracts/CrowdFoundry.sol\":1266:1525  {... */\n      pop\n      pop\n      pop\n        /* \"contracts/CrowdFoundry.sol\":1217:1525  function depositForCat(uint256) external payable {... */\n      pop\n      jump\t// out\n        /* \"#utility.yul\":7:84   */\n    tag_76:\n        /* \"#utility.yul\":44:51   */\n      0x00\n        /* \"#utility.yul\":73:78   */\n      dup2\n        /* \"#utility.yul\":62:78   */\n      swap1\n      pop\n        /* \"#utility.yul\":7:84   */\n      swap2\n      swap1\n      pop\n      jump\t// out\n        /* \"#utility.yul\":90:208   */\n    tag_77:\n        /* \"#utility.yul\":177:201   */\n      tag_87\n        /* \"#utility.yul\":195:200   */\n      dup2\n        /* \"#utility.yul\":177:201   */\n      tag_76\n      jump\t// in\n    tag_87:\n        /* \"#utility.yul\":172:175   */\n      dup3\n        /* \"#utility.yul\":165:202   */\n      mstore\n        /* \"#utility.yul\":90:208   */\n      pop\n      pop\n      jump\t// out\n        /* \"#utility.yul\":214:436   */\n    tag_21:\n        /* \"#utility.yul\":307:311   */\n      0x00\n        /* \"#utility.yul\":345:347   */\n      0x20\n        /* \"#utility.yul\":334:343   */\n      dup3\n        /* \"#utility.yul\":330:348   */\n      add\n        /* \"#utility.yul\":322:348   */\n      swap1\n      pop\n        /* \"#utility.yul\":358:429   */\n      tag_89\n        /* \"#utility.yul\":426:427   */\n      0x00\n        /* \"#utility.yul\":415:424   */\n      dup4\n        /* \"#utility.yul\":411:428   */\n      add\n        /* \"#utility.yul\":402:408   */\n      dup5\n        /* \"#utility.yul\":358:429   */\n      tag_77\n      jump\t// in\n    tag_89:\n        /* \"#utility.yul\":214:436   */\n      swap3\n      swap2\n      pop\n      pop\n      jump\t// out\n        /* \"#utility.yul\":523:640   */\n    tag_79:\n        /* \"#utility.yul\":632:633   */\n      0x00\n        /* \"#utility.yul\":629:630   */\n      dup1\n        /* \"#utility.yul\":622:634   */\n      revert\n        /* \"#utility.yul\":769:891   */\n    tag_81:\n        /* \"#utility.yul\":842:866   */\n      tag_94\n        /* \"#utility.yul\":860:865   */\n      dup2\n        /* \"#utility.yul\":842:866   */\n      tag_76\n      jump\t// in\n    tag_94:\n        /* \"#utility.yul\":835:840   */\n      dup2\n        /* \"#utility.yul\":832:867   */\n      eq\n        /* \"#utility.yul\":822:885   */\n      tag_95\n      jumpi\n        /* \"#utility.yul\":881:882   */\n      0x00\n        /* \"#utility.yul\":878:879   */\n      dup1\n        /* \"#utility.yul\":871:883   */\n      revert\n        /* \"#utility.yul\":822:885   */\n    tag_95:\n        /* \"#utility.yul\":769:891   */\n      pop\n      jump\t// out\n        /* \"#utility.yul\":897:1036   */\n    tag_82:\n        /* \"#utility.yul\":943:948   */\n      0x00\n        /* \"#utility.yul\":981:987   */\n      dup2\n        /* \"#utility.yul\":968:988   */\n      calldataload\n        /* \"#utility.yul\":959:988   */\n      swap1\n      pop\n        /* \"#utility.yul\":997:1030   */\n      tag_97\n        /* \"#utility.yul\":1024:1029   */\n      dup2\n        /* \"#utility.yul\":997:1030   */\n      tag_81\n      jump\t// in\n    tag_97:\n        /* \"#utility.yul\":897:1036   */\n      swap3\n      swap2\n      pop\n      pop\n      jump\t// out\n        /* \"#utility.yul\":1042:1371   */\n    tag_28:\n        /* \"#utility.yul\":1101:1107   */\n      0x00\n        /* \"#utility.yul\":1150:1152   */\n      0x20\n        /* \"#utility.yul\":1138:1147   */\n      dup3\n        /* \"#utility.yul\":1129:1136   */\n      dup5\n        /* \"#utility.yul\":1125:1148   */\n      sub\n        /* \"#utility.yul\":1121:1153   */\n      slt\n        /* \"#utility.yul\":1118:1237   */\n      iszero\n      tag_99\n      jumpi\n        /* \"#utility.yul\":1156:1235   */\n      tag_100\n      tag_79\n      jump\t// in\n    tag_100:\n        /* \"#utility.yul\":1118:1237   */\n    tag_99:\n        /* \"#utility.yul\":1276:1277   */\n      0x00\n        /* \"#utility.yul\":1301:1354   */\n      tag_101\n        /* \"#utility.yul\":1346:1353   */\n      dup5\n        /* \"#utility.yul\":1337:1343   */\n      dup3\n        /* \"#utility.yul\":1326:1335   */\n      dup6\n        /* \"#utility.yul\":1322:1344   */\n      add\n        /* \"#utility.yul\":1301:1354   */\n      tag_82\n      jump\t// in\n    tag_101:\n        /* \"#utility.yul\":1291:1354   */\n      swap2\n      pop\n        /* \"#utility.yul\":1247:1364   */\n      pop\n        /* \"#utility.yul\":1042:1371   */\n      swap3\n      swap2\n      pop\n      pop\n      jump\t// out\n        /* \"#utility.yul\":1377:2152   */\n    tag_50:\n        /* \"#utility.yul\":1610:1614   */\n      0x00\n        /* \"#utility.yul\":1648:1651   */\n      0xc0\n        /* \"#utility.yul\":1637:1646   */\n      dup3\n        /* \"#utility.yul\":1633:1652   */\n      add\n        /* \"#utility.yul\":1625:1652   */\n      swap1\n      pop\n        /* \"#utility.yul\":1662:1733   */\n      tag_103\n        /* \"#utility.yul\":1730:1731   */\n      0x00\n        /* \"#utility.yul\":1719:1728   */\n      dup4\n        /* \"#utility.yul\":1715:1732   */\n      add\n        /* \"#utility.yul\":1706:1712   */\n      dup10\n        /* \"#utility.yul\":1662:1733   */\n      tag_77\n      jump\t// in\n    tag_103:\n        /* \"#utility.yul\":1743:1815   */\n      tag_104\n        /* \"#utility.yul\":1811:1813   */\n      0x20\n        /* \"#utility.yul\":1800:1809   */\n      dup4\n        /* \"#utility.yul\":1796:1814   */\n      add\n        /* \"#utility.yul\":1787:1793   */\n      dup9\n        /* \"#utility.yul\":1743:1815   */\n      tag_77\n      jump\t// in\n    tag_104:\n        /* \"#utility.yul\":1825:1897   */\n      tag_105\n        /* \"#utility.yul\":1893:1895   */\n      0x40\n        /* \"#utility.yul\":1882:1891   */\n      dup4\n        /* \"#utility.yul\":1878:1896   */\n      add\n        /* \"#utility.yul\":1869:1875   */\n      dup8\n        /* \"#utility.yul\":1825:1897   */\n      tag_77\n      jump\t// in\n    tag_105:\n        /* \"#utility.yul\":1907:1979   */\n      tag_106\n        /* \"#utility.yul\":1975:1977   */\n      0x60\n        /* \"#utility.yul\":1964:1973   */\n      dup4\n        /* \"#utility.yul\":1960:1978   */\n      add\n        /* \"#utility.yul\":1951:1957   */\n      dup7\n        /* \"#utility.yul\":1907:1979   */\n      tag_77\n      jump\t// in\n    tag_106:\n        /* \"#utility.yul\":1989:2062   */\n      tag_107\n        /* \"#utility.yul\":2057:2060   */\n      0x80\n        /* \"#utility.yul\":2046:2055   */\n      dup4\n        /* \"#utility.yul\":2042:2061   */\n      add\n        /* \"#utility.yul\":2033:2039   */\n      dup6\n        /* \"#utility.yul\":1989:2062   */\n      tag_77\n      jump\t// in\n    tag_107:\n        /* \"#utility.yul\":2072:2145   */\n      tag_108\n        /* \"#utility.yul\":2140:2143   */\n      0xa0\n        /* \"#utility.yul\":2129:2138   */\n      dup4\n        /* \"#utility.yul\":2125:2144   */\n      add\n        /* \"#utility.yul\":2116:2122   */\n      dup5\n        /* \"#utility.yul\":2072:2145   */\n      tag_77\n      jump\t// in\n    tag_108:\n        /* \"#utility.yul\":1377:2152   */\n      swap8\n      swap7\n      pop\n      pop\n      pop\n      pop\n      pop\n      pop\n      pop\n      jump\t// out\n        /* \"#utility.yul\":2158:2632   */\n    tag_54:\n        /* \"#utility.yul\":2226:2232   */\n      0x00\n        /* \"#utility.yul\":2234:2240   */\n      dup1\n        /* \"#utility.yul\":2283:2285   */\n      0x40\n        /* \"#utility.yul\":2271:2280   */\n      dup4\n        /* \"#utility.yul\":2262:2269   */\n      dup6\n        /* \"#utility.yul\":2258:2281   */\n      sub\n        /* \"#utility.yul\":2254:2286   */\n      slt\n        /* \"#utility.yul\":2251:2370   */\n      iszero\n      tag_110\n      jumpi\n        /* \"#utility.yul\":2289:2368   */\n      tag_111\n      tag_79\n      jump\t// in\n    tag_111:\n        /* \"#utility.yul\":2251:2370   */\n    tag_110:\n        /* \"#utility.yul\":2409:2410   */\n      0x00\n        /* \"#utility.yul\":2434:2487   */\n      tag_112\n        /* \"#utility.yul\":2479:2486   */\n      dup6\n        /* \"#utility.yul\":2470:2476   */\n      dup3\n        /* \"#utility.yul\":2459:2468   */\n      dup7\n        /* \"#utility.yul\":2455:2477   */\n      add\n        /* \"#utility.yul\":2434:2487   */\n      tag_82\n      jump\t// in\n    tag_112:\n        /* \"#utility.yul\":2424:2487   */\n      swap3\n      pop\n        /* \"#utility.yul\":2380:2497   */\n      pop\n        /* \"#utility.yul\":2536:2538   */\n      0x20\n        /* \"#utility.yul\":2562:2615   */\n      tag_113\n        /* \"#utility.yul\":2607:2614   */\n      dup6\n        /* \"#utility.yul\":2598:2604   */\n      dup3\n        /* \"#utility.yul\":2587:2596   */\n      dup7\n        /* \"#utility.yul\":2583:2605   */\n      add\n        /* \"#utility.yul\":2562:2615   */\n      tag_82\n      jump\t// in\n    tag_113:\n        /* \"#utility.yul\":2552:2615   */\n      swap2\n      pop\n        /* \"#utility.yul\":2507:2625   */\n      pop\n        /* \"#utility.yul\":2158:2632   */\n      swap3\n      pop\n      swap3\n      swap1\n      pop\n      jump\t// out\n        /* \"#utility.yul\":2638:2818   */\n    tag_83:\n        /* \"#utility.yul\":2686:2763   */\n      0x4e487b7100000000000000000000000000000000000000000000000000000000\n        /* \"#utility.yul\":2683:2684   */\n      0x00\n        /* \"#utility.yul\":2676:2764   */\n      mstore\n        /* \"#utility.yul\":2783:2787   */\n      0x11\n        /* \"#utility.yul\":2780:2781   */\n      0x04\n        /* \"#utility.yul\":2773:2788   */\n      mstore\n        /* \"#utility.yul\":2807:2811   */\n      0x24\n        /* \"#utility.yul\":2804:2805   */\n      0x00\n        /* \"#utility.yul\":2797:2812   */\n      revert\n        /* \"#utility.yul\":2824:3057   */\n    tag_64:\n        /* \"#utility.yul\":2863:2866   */\n      0x00\n        /* \"#utility.yul\":2886:2910   */\n      tag_116\n        /* \"#utility.yul\":2904:2909   */\n      dup3\n        /* \"#utility.yul\":2886:2910   */\n      tag_76\n      jump\t// in\n    tag_116:\n        /* \"#utility.yul\":2877:2910   */\n      swap2\n      pop\n        /* \"#utility.yul\":2932:2998   */\n      0xffffffffffffffffffffffffffffffffffffffffffffffffffffffffffffffff\n        /* \"#utility.yul\":2925:2930   */\n      dup3\n        /* \"#utility.yul\":2922:2999   */\n      sub\n        /* \"#utility.yul\":2919:3022   */\n      tag_117\n      jumpi\n        /* \"#utility.yul\":3002:3020   */\n      tag_118\n      tag_83\n      jump\t// in\n    tag_118:\n        /* \"#utility.yul\":2919:3022   */\n    tag_117:\n        /* \"#utility.yul\":3049:3050   */\n      0x01\n        /* \"#utility.yul\":3042:3047   */\n      dup3\n        /* \"#utility.yul\":3038:3051   */\n      add\n        /* \"#utility.yul\":3031:3051   */\n      swap1\n      pop\n        /* \"#utility.yul\":2824:3057   */\n      swap2\n      swap1\n      pop\n      jump\t// out\n\n    auxdata: 0xa26469706673582212203588b8de554a05405353101a2026a1569aade1d4ae5849a61bf349ad0fe9fc6464736f6c63430008160033\n}\n",
				"bytecode": {
					"linkReferences": {},
					"object": "608060405234801561000f575f80fd5b5061077a8061001d5f395ff3fe60806040526004361061009b575f3560e01c806376cbe7061161006357806376cbe7061461014f5780639a1f4616146101795780639d8d7a04146101a3578063a07d7972146101bf578063c36b61ee14610200578063f1f400ed146102415761009b565b80630665fa8d1461009f5780630d9234d6146100b557806321ea57c3146100df5780635539c2ea1461010957806358435f5b14610125575b5f80fd5b3480156100aa575f80fd5b506100b361025d565b005b3480156100c0575f80fd5b506100c9610329565b6040516100d691906105c1565b60405180910390f35b3480156100ea575f80fd5b506100f361032f565b60405161010091906105c1565b60405180910390f35b610123600480360381019061011e9190610608565b610335565b005b348015610130575f80fd5b50610139610415565b60405161014691906105c1565b60405180910390f35b34801561015a575f80fd5b5061016361041b565b60405161017091906105c1565b60405180910390f35b348015610184575f80fd5b5061018d610421565b60405161019a91906105c1565b60405180910390f35b6101bd60048036038101906101b89190610608565b610427565b005b3480156101ca575f80fd5b506101e560048036038101906101e09190610608565b610441565b6040516101f796959493929190610633565b60405180910390f35b34801561020b575f80fd5b5061022660048036038101906102219190610692565b610488565b60405161023896959493929190610633565b60405180910390f35b61025b60048036038101906102569190610608565b6104da565b005b5f6040518060c001604052805f548152602001600154815260200160055481526020016004548152602001600654815260200160075481525090505f816020015190505f826060015190508091505f835f015190505f84604001519050809150600985908060018154018082558091505060019003905f5260205f2090600602015f909190919091505f820151815f01556020820151816001015560408201518160020155606082015181600301556080820151816004015560a0820151816005015550505050505050565b60055481565b60035481565b5f6040518060c001604052805f548152602001600154815260200160055481526020016004548152602001600654815260200160075481525090505f816020015190505f82606001805180919061038b906106fd565b815250905060055f8154809291906103a2906106fd565b9190505550809150600983908060018154018082558091505060019003905f5260205f2090600602015f909190919091505f820151815f01556020820151816001015560408201518160020155606082015181600301556080820151816004015560a08201518160050155505050505050565b60065481565b60045481565b60075481565b60035f815480929190610439906106fd565b919050555050565b60098181548110610450575f80fd5b905f5260205f2090600602015f91509050805f0154908060010154908060020154908060030154908060040154908060050154905086565b6008602052815f5260405f2081815481106104a1575f80fd5b905f5260205f2090600602015f9150915050805f0154908060010154908060020154908060030154908060040154908060050154905086565b5f6040518060c001604052805f548152602001600154815260200160045481526020016005548152602001600654815260200160075481525090505f815f015190505f8260400151905060045f815480929190610536906106fd565b9190505550809150600983908060018154018082558091505060019003905f5260205f2090600602015f909190919091505f820151815f01556020820151816001015560408201518160020155606082015181600301556080820151816004015560a08201518160050155505050505050565b5f819050919050565b6105bb816105a9565b82525050565b5f6020820190506105d45f8301846105b2565b92915050565b5f80fd5b6105e7816105a9565b81146105f1575f80fd5b50565b5f81359050610602816105de565b92915050565b5f6020828403121561061d5761061c6105da565b5b5f61062a848285016105f4565b91505092915050565b5f60c0820190506106465f8301896105b2565b61065360208301886105b2565b61066060408301876105b2565b61066d60608301866105b2565b61067a60808301856105b2565b61068760a08301846105b2565b979650505050505050565b5f80604083850312156106a8576106a76105da565b5b5f6106b5858286016105f4565b92505060206106c6858286016105f4565b9150509250929050565b7f4e487b71000000000000000000000000000000000000000000000000000000005f52601160045260245ffd5b5f610707826105a9565b91507fffffffffffffffffffffffffffffffffffffffffffffffffffffffffffffffff8203610739576107386106d0565b5b60018201905091905056fea26469706673582212203588b8de554a05405353101a2026a1569aade1d4ae5849a61bf349ad0fe9fc6464736f6c63430008160033",
					"opcodes": "PUSH1 0x80 PUSH1 0x40 MSTORE CALLVALUE DUP1 ISZERO PUSH2 0xF JUMPI PUSH0 DUP1 REVERT JUMPDEST POP PUSH2 0x77A DUP1 PUSH2 0x1D PUSH0 CODECOPY PUSH0 RETURN INVALID PUSH1 0x80 PUSH1 0x40 MSTORE PUSH1 0x4 CALLDATASIZE LT PUSH2 0x9B JUMPI PUSH0 CALLDATALOAD PUSH1 0xE0 SHR DUP1 PUSH4 0x76CBE706 GT PUSH2 0x63 JUMPI DUP1 PUSH4 0x76CBE706 EQ PUSH2 0x14F JUMPI DUP1 PUSH4 0x9A1F4616 EQ PUSH2 0x179 JUMPI DUP1 PUSH4 0x9D8D7A04 EQ PUSH2 0x1A3 JUMPI DUP1 PUSH4 0xA07D7972 EQ PUSH2 0x1BF JUMPI DUP1 PUSH4 0xC36B61EE EQ PUSH2 0x200 JUMPI DUP1 PUSH4 0xF1F400ED EQ PUSH2 0x241 JUMPI PUSH2 0x9B JUMP JUMPDEST DUP1 PUSH4 0x665FA8D EQ PUSH2 0x9F JUMPI DUP1 PUSH4 0xD9234D6 EQ PUSH2 0xB5 JUMPI DUP1 PUSH4 0x21EA57C3 EQ PUSH2 0xDF JUMPI DUP1 PUSH4 0x5539C2EA EQ PUSH2 0x109 JUMPI DUP1 PUSH4 0x58435F5B EQ PUSH2 0x125 JUMPI JUMPDEST PUSH0 DUP1 REVERT JUMPDEST CALLVALUE DUP1 ISZERO PUSH2 0xAA JUMPI PUSH0 DUP1 REVERT JUMPDEST POP PUSH2 0xB3 PUSH2 0x25D JUMP JUMPDEST STOP JUMPDEST CALLVALUE DUP1 ISZERO PUSH2 0xC0 JUMPI PUSH0 DUP1 REVERT JUMPDEST POP PUSH2 0xC9 PUSH2 0x329 JUMP JUMPDEST PUSH1 0x40 MLOAD PUSH2 0xD6 SWAP2 SWAP1 PUSH2 0x5C1 JUMP JUMPDEST PUSH1 0x40 MLOAD DUP1 SWAP2 SUB SWAP1 RETURN JUMPDEST CALLVALUE DUP1 ISZERO PUSH2 0xEA JUMPI PUSH0 DUP1 REVERT JUMPDEST POP PUSH2 0xF3 PUSH2 0x32F JUMP JUMPDEST PUSH1 0x40 MLOAD PUSH2 0x100 SWAP2 SWAP1 PUSH2 0x5C1 JUMP JUMPDEST PUSH1 0x40 MLOAD DUP1 SWAP2 SUB SWAP1 RETURN JUMPDEST PUSH2 0x123 PUSH1 0x4 DUP1 CALLDATASIZE SUB DUP2 ADD SWAP1 PUSH2 0x11E SWAP2 SWAP1 PUSH2 0x608 JUMP JUMPDEST PUSH2 0x335 JUMP JUMPDEST STOP JUMPDEST CALLVALUE DUP1 ISZERO PUSH2 0x130 JUMPI PUSH0 DUP1 REVERT JUMPDEST POP PUSH2 0x139 PUSH2 0x415 JUMP JUMPDEST PUSH1 0x40 MLOAD PUSH2 0x146 SWAP2 SWAP1 PUSH2 0x5C1 JUMP JUMPDEST PUSH1 0x40 MLOAD DUP1 SWAP2 SUB SWAP1 RETURN JUMPDEST CALLVALUE DUP1 ISZERO PUSH2 0x15A JUMPI PUSH0 DUP1 REVERT JUMPDEST POP PUSH2 0x163 PUSH2 0x41B JUMP JUMPDEST PUSH1 0x40 MLOAD PUSH2 0x170 SWAP2 SWAP1 PUSH2 0x5C1 JUMP JUMPDEST PUSH1 0x40 MLOAD DUP1 SWAP2 SUB SWAP1 RETURN JUMPDEST CALLVALUE DUP1 ISZERO PUSH2 0x184 JUMPI PUSH0 DUP1 REVERT JUMPDEST POP PUSH2 0x18D PUSH2 0x421 JUMP JUMPDEST PUSH1 0x40 MLOAD PUSH2 0x19A SWAP2 SWAP1 PUSH2 0x5C1 JUMP JUMPDEST PUSH1 0x40 MLOAD DUP1 SWAP2 SUB SWAP1 RETURN JUMPDEST PUSH2 0x1BD PUSH1 0x4 DUP1 CALLDATASIZE SUB DUP2 ADD SWAP1 PUSH2 0x1B8 SWAP2 SWAP1 PUSH2 0x608 JUMP JUMPDEST PUSH2 0x427 JUMP JUMPDEST STOP JUMPDEST CALLVALUE DUP1 ISZERO PUSH2 0x1CA JUMPI PUSH0 DUP1 REVERT JUMPDEST POP PUSH2 0x1E5 PUSH1 0x4 DUP1 CALLDATASIZE SUB DUP2 ADD SWAP1 PUSH2 0x1E0 SWAP2 SWAP1 PUSH2 0x608 JUMP JUMPDEST PUSH2 0x441 JUMP JUMPDEST PUSH1 0x40 MLOAD PUSH2 0x1F7 SWAP7 SWAP6 SWAP5 SWAP4 SWAP3 SWAP2 SWAP1 PUSH2 0x633 JUMP JUMPDEST PUSH1 0x40 MLOAD DUP1 SWAP2 SUB SWAP1 RETURN JUMPDEST CALLVALUE DUP1 ISZERO PUSH2 0x20B JUMPI PUSH0 DUP1 REVERT JUMPDEST POP PUSH2 0x226 PUSH1 0x4 DUP1 CALLDATASIZE SUB DUP2 ADD SWAP1 PUSH2 0x221 SWAP2 SWAP1 PUSH2 0x692 JUMP JUMPDEST PUSH2 0x488 JUMP JUMPDEST PUSH1 0x40 MLOAD PUSH2 0x238 SWAP7 SWAP6 SWAP5 SWAP4 SWAP3 SWAP2 SWAP1 PUSH2 0x633 JUMP JUMPDEST PUSH1 0x40 MLOAD DUP1 SWAP2 SUB SWAP1 RETURN JUMPDEST PUSH2 0x25B PUSH1 0x4 DUP1 CALLDATASIZE SUB DUP2 ADD SWAP1 PUSH2 0x256 SWAP2 SWAP1 PUSH2 0x608 JUMP JUMPDEST PUSH2 0x4DA JUMP JUMPDEST STOP JUMPDEST PUSH0 PUSH1 0x40 MLOAD DUP1 PUSH1 0xC0 ADD PUSH1 0x40 MSTORE DUP1 PUSH0 SLOAD DUP2 MSTORE PUSH1 0x20 ADD PUSH1 0x1 SLOAD DUP2 MSTORE PUSH1 0x20 ADD PUSH1 0x5 SLOAD DUP2 MSTORE PUSH1 0x20 ADD PUSH1 0x4 SLOAD DUP2 MSTORE PUSH1 0x20 ADD PUSH1 0x6 SLOAD DUP2 MSTORE PUSH1 0x20 ADD PUSH1 0x7 SLOAD DUP2 MSTORE POP SWAP1 POP PUSH0 DUP2 PUSH1 0x20 ADD MLOAD SWAP1 POP PUSH0 DUP3 PUSH1 0x60 ADD MLOAD SWAP1 POP DUP1 SWAP2 POP PUSH0 DUP4 PUSH0 ADD MLOAD SWAP1 POP PUSH0 DUP5 PUSH1 0x40 ADD MLOAD SWAP1 POP DUP1 SWAP2 POP PUSH1 0x9 DUP6 SWAP1 DUP1 PUSH1 0x1 DUP2 SLOAD ADD DUP1 DUP3 SSTORE DUP1 SWAP2 POP POP PUSH1 0x1 SWAP1 SUB SWAP1 PUSH0 MSTORE PUSH1 0x20 PUSH0 KECCAK256 SWAP1 PUSH1 0x6 MUL ADD PUSH0 SWAP1 SWAP2 SWAP1 SWAP2 SWAP1 SWAP2 POP PUSH0 DUP3 ADD MLOAD DUP2 PUSH0 ADD SSTORE PUSH1 0x20 DUP3 ADD MLOAD DUP2 PUSH1 0x1 ADD SSTORE PUSH1 0x40 DUP3 ADD MLOAD DUP2 PUSH1 0x2 ADD SSTORE PUSH1 0x60 DUP3 ADD MLOAD DUP2 PUSH1 0x3 ADD SSTORE PUSH1 0x80 DUP3 ADD MLOAD DUP2 PUSH1 0x4 ADD SSTORE PUSH1 0xA0 DUP3 ADD MLOAD DUP2 PUSH1 0x5 ADD SSTORE POP POP POP POP POP POP POP JUMP JUMPDEST PUSH1 0x5 SLOAD DUP2 JUMP JUMPDEST PUSH1 0x3 SLOAD DUP2 JUMP JUMPDEST PUSH0 PUSH1 0x40 MLOAD DUP1 PUSH1 0xC0 ADD PUSH1 0x40 MSTORE DUP1 PUSH0 SLOAD DUP2 MSTORE PUSH1 0x20 ADD PUSH1 0x1 SLOAD DUP2 MSTORE PUSH1 0x20 ADD PUSH1 0x5 SLOAD DUP2 MSTORE PUSH1 0x20 ADD PUSH1 0x4 SLOAD DUP2 MSTORE PUSH1 0x20 ADD PUSH1 0x6 SLOAD DUP2 MSTORE PUSH1 0x20 ADD PUSH1 0x7 SLOAD DUP2 MSTORE POP SWAP1 POP PUSH0 DUP2 PUSH1 0x20 ADD MLOAD SWAP1 POP PUSH0 DUP3 PUSH1 0x60 ADD DUP1 MLOAD DUP1 SWAP2 SWAP1 PUSH2 0x38B SWAP1 PUSH2 0x6FD JUMP JUMPDEST DUP2 MSTORE POP SWAP1 POP PUSH1 0x5 PUSH0 DUP2 SLOAD DUP1 SWAP3 SWAP2 SWAP1 PUSH2 0x3A2 SWAP1 PUSH2 0x6FD JUMP JUMPDEST SWAP2 SWAP1 POP SSTORE POP DUP1 SWAP2 POP PUSH1 0x9 DUP4 SWAP1 DUP1 PUSH1 0x1 DUP2 SLOAD ADD DUP1 DUP3 SSTORE DUP1 SWAP2 POP POP PUSH1 0x1 SWAP1 SUB SWAP1 PUSH0 MSTORE PUSH1 0x20 PUSH0 KECCAK256 SWAP1 PUSH1 0x6 MUL ADD PUSH0 SWAP1 SWAP2 SWAP1 SWAP2 SWAP1 SWAP2 POP PUSH0 DUP3 ADD MLOAD DUP2 PUSH0 ADD SSTORE PUSH1 0x20 DUP3 ADD MLOAD DUP2 PUSH1 0x1 ADD SSTORE PUSH1 0x40 DUP3 ADD MLOAD DUP2 PUSH1 0x2 ADD SSTORE PUSH1 0x60 DUP3 ADD MLOAD DUP2 PUSH1 0x3 ADD SSTORE PUSH1 0x80 DUP3 ADD MLOAD DUP2 PUSH1 0x4 ADD SSTORE PUSH1 0xA0 DUP3 ADD MLOAD DUP2 PUSH1 0x5 ADD SSTORE POP POP POP POP POP POP JUMP JUMPDEST PUSH1 0x6 SLOAD DUP2 JUMP JUMPDEST PUSH1 0x4 SLOAD DUP2 JUMP JUMPDEST PUSH1 0x7 SLOAD DUP2 JUMP JUMPDEST PUSH1 0x3 PUSH0 DUP2 SLOAD DUP1 SWAP3 SWAP2 SWAP1 PUSH2 0x439 SWAP1 PUSH2 0x6FD JUMP JUMPDEST SWAP2 SWAP1 POP SSTORE POP POP JUMP JUMPDEST PUSH1 0x9 DUP2 DUP2 SLOAD DUP2 LT PUSH2 0x450 JUMPI PUSH0 DUP1 REVERT JUMPDEST SWAP1 PUSH0 MSTORE PUSH1 0x20 PUSH0 KECCAK256 SWAP1 PUSH1 0x6 MUL ADD PUSH0 SWAP2 POP SWAP1 POP DUP1 PUSH0 ADD SLOAD SWAP1 DUP1 PUSH1 0x1 ADD SLOAD SWAP1 DUP1 PUSH1 0x2 ADD SLOAD SWAP1 DUP1 PUSH1 0x3 ADD SLOAD SWAP1 DUP1 PUSH1 0x4 ADD SLOAD SWAP1 DUP1 PUSH1 0x5 ADD SLOAD SWAP1 POP DUP7 JUMP JUMPDEST PUSH1 0x8 PUSH1 0x20 MSTORE DUP2 PUSH0 MSTORE PUSH1 0x40 PUSH0 KECCAK256 DUP2 DUP2 SLOAD DUP2 LT PUSH2 0x4A1 JUMPI PUSH0 DUP1 REVERT JUMPDEST SWAP1 PUSH0 MSTORE PUSH1 0x20 PUSH0 KECCAK256 SWAP1 PUSH1 0x6 MUL ADD PUSH0 SWAP2 POP SWAP2 POP POP DUP1 PUSH0 ADD SLOAD SWAP1 DUP1 PUSH1 0x1 ADD SLOAD SWAP1 DUP1 PUSH1 0x2 ADD SLOAD SWAP1 DUP1 PUSH1 0x3 ADD SLOAD SWAP1 DUP1 PUSH1 0x4 ADD SLOAD SWAP1 DUP1 PUSH1 0x5 ADD SLOAD SWAP1 POP DUP7 JUMP JUMPDEST PUSH0 PUSH1 0x40 MLOAD DUP1 PUSH1 0xC0 ADD PUSH1 0x40 MSTORE DUP1 PUSH0 SLOAD DUP2 MSTORE PUSH1 0x20 ADD PUSH1 0x1 SLOAD DUP2 MSTORE PUSH1 0x20 ADD PUSH1 0x4 SLOAD DUP2 MSTORE PUSH1 0x20 ADD PUSH1 0x5 SLOAD DUP2 MSTORE PUSH1 0x20 ADD PUSH1 0x6 SLOAD DUP2 MSTORE PUSH1 0x20 ADD PUSH1 0x7 SLOAD DUP2 MSTORE POP SWAP1 POP PUSH0 DUP2 PUSH0 ADD MLOAD SWAP1 POP PUSH0 DUP3 PUSH1 0x40 ADD MLOAD SWAP1 POP PUSH1 0x4 PUSH0 DUP2 SLOAD DUP1 SWAP3 SWAP2 SWAP1 PUSH2 0x536 SWAP1 PUSH2 0x6FD JUMP JUMPDEST SWAP2 SWAP1 POP SSTORE POP DUP1 SWAP2 POP PUSH1 0x9 DUP4 SWAP1 DUP1 PUSH1 0x1 DUP2 SLOAD ADD DUP1 DUP3 SSTORE DUP1 SWAP2 POP POP PUSH1 0x1 SWAP1 SUB SWAP1 PUSH0 MSTORE PUSH1 0x20 PUSH0 KECCAK256 SWAP1 PUSH1 0x6 MUL ADD PUSH0 SWAP1 SWAP2 SWAP1 SWAP2 SWAP1 SWAP2 POP PUSH0 DUP3 ADD MLOAD DUP2 PUSH0 ADD SSTORE PUSH1 0x20 DUP3 ADD MLOAD DUP2 PUSH1 0x1 ADD SSTORE PUSH1 0x40 DUP3 ADD MLOAD DUP2 PUSH1 0x2 ADD SSTORE PUSH1 0x60 DUP3 ADD MLOAD DUP2 PUSH1 0x3 ADD SSTORE PUSH1 0x80 DUP3 ADD MLOAD DUP2 PUSH1 0x4 ADD SSTORE PUSH1 0xA0 DUP3 ADD MLOAD DUP2 PUSH1 0x5 ADD SSTORE POP POP POP POP POP POP JUMP JUMPDEST PUSH0 DUP2 SWAP1 POP SWAP2 SWAP1 POP JUMP JUMPDEST PUSH2 0x5BB DUP2 PUSH2 0x5A9 JUMP JUMPDEST DUP3 MSTORE POP POP JUMP JUMPDEST PUSH0 PUSH1 0x20 DUP3 ADD SWAP1 POP PUSH2 0x5D4 PUSH0 DUP4 ADD DUP5 PUSH2 0x5B2 JUMP JUMPDEST SWAP3 SWAP2 POP POP JUMP JUMPDEST PUSH0 DUP1 REVERT JUMPDEST PUSH2 0x5E7 DUP2 PUSH2 0x5A9 JUMP JUMPDEST DUP2 EQ PUSH2 0x5F1 JUMPI PUSH0 DUP1 REVERT JUMPDEST POP JUMP JUMPDEST PUSH0 DUP2 CALLDATALOAD SWAP1 POP PUSH2 0x602 DUP2 PUSH2 0x5DE JUMP JUMPDEST SWAP3 SWAP2 POP POP JUMP JUMPDEST PUSH0 PUSH1 0x20 DUP3 DUP5 SUB SLT ISZERO PUSH2 0x61D JUMPI PUSH2 0x61C PUSH2 0x5DA JUMP JUMPDEST JUMPDEST PUSH0 PUSH2 0x62A DUP5 DUP3 DUP6 ADD PUSH2 0x5F4 JUMP JUMPDEST SWAP2 POP POP SWAP3 SWAP2 POP POP JUMP JUMPDEST PUSH0 PUSH1 0xC0 DUP3 ADD SWAP1 POP PUSH2 0x646 PUSH0 DUP4 ADD DUP10 PUSH2 0x5B2 JUMP JUMPDEST PUSH2 0x653 PUSH1 0x20 DUP4 ADD DUP9 PUSH2 0x5B2 JUMP JUMPDEST PUSH2 0x660 PUSH1 0x40 DUP4 ADD DUP8 PUSH2 0x5B2 JUMP JUMPDEST PUSH2 0x66D PUSH1 0x60 DUP4 ADD DUP7 PUSH2 0x5B2 JUMP JUMPDEST PUSH2 0x67A PUSH1 0x80 DUP4 ADD DUP6 PUSH2 0x5B2 JUMP JUMPDEST PUSH2 0x687 PUSH1 0xA0 DUP4 ADD DUP5 PUSH2 0x5B2 JUMP JUMPDEST SWAP8 SWAP7 POP POP POP POP POP POP POP JUMP JUMPDEST PUSH0 DUP1 PUSH1 0x40 DUP4 DUP6 SUB SLT ISZERO PUSH2 0x6A8 JUMPI PUSH2 0x6A7 PUSH2 0x5DA JUMP JUMPDEST JUMPDEST PUSH0 PUSH2 0x6B5 DUP6 DUP3 DUP7 ADD PUSH2 0x5F4 JUMP JUMPDEST SWAP3 POP POP PUSH1 0x20 PUSH2 0x6C6 DUP6 DUP3 DUP7 ADD PUSH2 0x5F4 JUMP JUMPDEST SWAP2 POP POP SWAP3 POP SWAP3 SWAP1 POP JUMP JUMPDEST PUSH32 0x4E487B7100000000000000000000000000000000000000000000000000000000 PUSH0 MSTORE PUSH1 0x11 PUSH1 0x4 MSTORE PUSH1 0x24 PUSH0 REVERT JUMPDEST PUSH0 PUSH2 0x707 DUP3 PUSH2 0x5A9 JUMP JUMPDEST SWAP2 POP PUSH32 0xFFFFFFFFFFFFFFFFFFFFFFFFFFFFFFFFFFFFFFFFFFFFFFFFFFFFFFFFFFFFFFFF DUP3 SUB PUSH2 0x739 JUMPI PUSH2 0x738 PUSH2 0x6D0 JUMP JUMPDEST JUMPDEST PUSH1 0x1 DUP3 ADD SWAP1 POP SWAP2 SWAP1 POP JUMP INVALID LOG2 PUSH5 0x6970667358 0x22 SLT KECCAK256 CALLDATALOAD DUP9 0xB8 0xDE SSTORE 0x4A SDIV BLOCKHASH MSTORE8 MSTORE8 LT BYTE KECCAK256 0x26 LOG1 JUMP SWAP11 0xAD 0xE1 0xD4 0xAE PC 0x49 0xA6 SHL RETURN 0x49 0xAD 0xF 0xE9 0xFC PUSH5 0x64736F6C63 NUMBER STOP ADDMOD AND STOP CALLER "
				},
				"gasEstimates": {
					"creation": {
						"codeDepositCost": "382800",
						"executionCost": "416",
						"totalCost": "383216"
					},
					"external": {
						"SAVEDCAT()": "2425",
						"SAVEDDOG()": "2448",
						"SAVEDPIG()": "2470",
						"checkSavedPet()": "170041",
						"depositForCat(uint256)": "infinite",
						"depositForDog(uint256)": "infinite",
						"depositForPig(uint256)": "infinite",
						"pet(uint256)": "infinite",
						"savedcat(uint256,uint256)": "infinite",
						"totalcat()": "2514",
						"totaldog()": "2447"
					}
				},
				"methodIdentifiers": {
					"SAVEDCAT()": "76cbe706",
					"SAVEDDOG()": "0d9234d6",
					"SAVEDPIG()": "21ea57c3",
					"checkSavedPet()": "0665fa8d",
					"depositForCat(uint256)": "f1f400ed",
					"depositForDog(uint256)": "5539c2ea",
					"depositForPig(uint256)": "9d8d7a04",
					"pet(uint256)": "a07d7972",
					"savedcat(uint256,uint256)": "c36b61ee",
					"totalcat()": "58435f5b",
					"totaldog()": "9a1f4616"
				}
			},
			"storageLayout": {
				"storage": [
					{
						"astId": 4,
						"contract": "contracts/CrowdFoundry.sol:CrowdFoundry",
						"label": "cat",
						"offset": 0,
						"slot": "0",
						"type": "t_uint256"
					},
					{
						"astId": 6,
						"contract": "contracts/CrowdFoundry.sol:CrowdFoundry",
						"label": "dog",
						"offset": 0,
						"slot": "1",
						"type": "t_uint256"
					},
					{
						"astId": 8,
						"contract": "contracts/CrowdFoundry.sol:CrowdFoundry",
						"label": "pig",
						"offset": 0,
						"slot": "2",
						"type": "t_uint256"
					},
					{
						"astId": 10,
						"contract": "contracts/CrowdFoundry.sol:CrowdFoundry",
						"label": "SAVEDPIG",
						"offset": 0,
						"slot": "3",
						"type": "t_uint256"
					},
					{
						"astId": 12,
						"contract": "contracts/CrowdFoundry.sol:CrowdFoundry",
						"label": "SAVEDCAT",
						"offset": 0,
						"slot": "4",
						"type": "t_uint256"
					},
					{
						"astId": 14,
						"contract": "contracts/CrowdFoundry.sol:CrowdFoundry",
						"label": "SAVEDDOG",
						"offset": 0,
						"slot": "5",
						"type": "t_uint256"
					},
					{
						"astId": 16,
						"contract": "contracts/CrowdFoundry.sol:CrowdFoundry",
						"label": "totalcat",
						"offset": 0,
						"slot": "6",
						"type": "t_uint256"
					},
					{
						"astId": 18,
						"contract": "contracts/CrowdFoundry.sol:CrowdFoundry",
						"label": "totaldog",
						"offset": 0,
						"slot": "7",
						"type": "t_uint256"
					},
					{
						"astId": 24,
						"contract": "contracts/CrowdFoundry.sol:CrowdFoundry",
						"label": "savedcat",
						"offset": 0,
						"slot": "8",
						"type": "t_mapping(t_uint256,t_array(t_struct(Animal)41_storage)dyn_storage)"
					},
					{
						"astId": 28,
						"contract": "contracts/CrowdFoundry.sol:CrowdFoundry",
						"label": "pet",
						"offset": 0,
						"slot": "9",
						"type": "t_array(t_struct(Animal)41_storage)dyn_storage"
					}
				],
				"types": {
					"t_array(t_struct(Animal)41_storage)dyn_storage": {
						"base": "t_struct(Animal)41_storage",
						"encoding": "dynamic_array",
						"label": "struct CrowdFoundry.Animal[]",
						"numberOfBytes": "32"
					},
					"t_mapping(t_uint256,t_array(t_struct(Animal)41_storage)dyn_storage)": {
						"encoding": "mapping",
						"key": "t_uint256",
						"label": "mapping(uint256 => struct CrowdFoundry.Animal[])",
						"numberOfBytes": "32",
						"value": "t_array(t_struct(Animal)41_storage)dyn_storage"
					},
					"t_struct(Animal)41_storage": {
						"encoding": "inplace",
						"label": "struct CrowdFoundry.Animal",
						"members": [
							{
								"astId": 30,
								"contract": "contracts/CrowdFoundry.sol:CrowdFoundry",
								"label": "cat",
								"offset": 0,
								"slot": "0",
								"type": "t_uint256"
							},
							{
								"astId": 32,
								"contract": "contracts/CrowdFoundry.sol:CrowdFoundry",
								"label": "dog",
								"offset": 0,
								"slot": "1",
								"type": "t_uint256"
							},
							{
								"astId": 34,
								"contract": "contracts/CrowdFoundry.sol:CrowdFoundry",
								"label": "SAVEDCATANIMAL",
								"offset": 0,
								"slot": "2",
								"type": "t_uint256"
							},
							{
								"astId": 36,
								"contract": "contracts/CrowdFoundry.sol:CrowdFoundry",
								"label": "SAVEDDOGANIMAL",
								"offset": 0,
								"slot": "3",
								"type": "t_uint256"
							},
							{
								"astId": 38,
								"contract": "contracts/CrowdFoundry.sol:CrowdFoundry",
								"label": "totalcat",
								"offset": 0,
								"slot": "4",
								"type": "t_uint256"
							},
							{
								"astId": 40,
								"contract": "contracts/CrowdFoundry.sol:CrowdFoundry",
								"label": "totaldog",
								"offset": 0,
								"slot": "5",
								"type": "t_uint256"
							}
						],
						"numberOfBytes": "192"
					},
					"t_uint256": {
						"encoding": "inplace",
						"label": "uint256",
						"numberOfBytes": "32"
					}
				}
			},
			"userdoc": {
				"kind": "user",
				"methods": {},
				"version": 1
			}
		}
	}
}