{
	"contracts/FlightPolicy.sol": {
		"FlightInsuranceContract": {
			"abi": [
				{
					"inputs": [],
					"stateMutability": "nonpayable",
					"type": "constructor"
				},
				{
					"anonymous": false,
					"inputs": [
						{
							"indexed": true,
							"internalType": "address",
							"name": "policyholder",
							"type": "address"
						},
						{
							"indexed": false,
							"internalType": "uint256",
							"name": "compensation",
							"type": "uint256"
						}
					],
					"name": "FlightDelayed",
					"type": "event"
				},
				{
					"anonymous": false,
					"inputs": [
						{
							"indexed": true,
							"internalType": "address",
							"name": "policyholder",
							"type": "address"
						},
						{
							"indexed": false,
							"internalType": "uint256",
							"name": "coverageAmount",
							"type": "uint256"
						},
						{
							"indexed": false,
							"internalType": "uint256",
							"name": "premium",
							"type": "uint256"
						}
					],
					"name": "PolicyPurchased",
					"type": "event"
				},
				{
					"inputs": [
						{
							"internalType": "address",
							"name": "",
							"type": "address"
						}
					],
					"name": "coverageAmounts",
					"outputs": [
						{
							"internalType": "uint256",
							"name": "",
							"type": "uint256"
						}
					],
					"stateMutability": "view",
					"type": "function"
				},
				{
					"inputs": [],
					"name": "insurer",
					"outputs": [
						{
							"internalType": "address",
							"name": "",
							"type": "address"
						}
					],
					"stateMutability": "view",
					"type": "function"
				},
				{
					"inputs": [
						{
							"internalType": "address",
							"name": "",
							"type": "address"
						}
					],
					"name": "isPolicyActive",
					"outputs": [
						{
							"internalType": "bool",
							"name": "",
							"type": "bool"
						}
					],
					"stateMutability": "view",
					"type": "function"
				},
				{
					"inputs": [
						{
							"internalType": "address",
							"name": "",
							"type": "address"
						}
					],
					"name": "premiums",
					"outputs": [
						{
							"internalType": "uint256",
							"name": "",
							"type": "uint256"
						}
					],
					"stateMutability": "view",
					"type": "function"
				},
				{
					"inputs": [
						{
							"internalType": "address",
							"name": "_policyholder",
							"type": "address"
						},
						{
							"internalType": "uint256",
							"name": "_compensation",
							"type": "uint256"
						}
					],
					"name": "processFlightDelay",
					"outputs": [],
					"stateMutability": "nonpayable",
					"type": "function"
				},
				{
					"inputs": [],
					"name": "purchasePolicy",
					"outputs": [],
					"stateMutability": "payable",
					"type": "function"
				},
				{
					"inputs": [
						{
							"internalType": "address",
							"name": "_policyholder",
							"type": "address"
						},
						{
							"internalType": "uint256",
							"name": "_coverageAmount",
							"type": "uint256"
						},
						{
							"internalType": "uint256",
							"name": "_premium",
							"type": "uint256"
						}
					],
					"name": "setPremium",
					"outputs": [],
					"stateMutability": "nonpayable",
					"type": "function"
				},
				{
					"inputs": [],
					"name": "withdraw",
					"outputs": [],
					"stateMutability": "nonpayable",
					"type": "function"
				}
			],
			"devdoc": {
				"kind": "dev",
				"methods": {},
				"version": 1
			},
			"evm": {
				"assembly": "    /* \"contracts/FlightPolicy.sol\":60:2000  contract FlightInsuranceContract {... */\n  mstore(0x40, 0x80)\n    /* \"contracts/FlightPolicy.sol\":605:658  constructor() {... */\n  callvalue\n  dup1\n  iszero\n  tag_1\n  jumpi\n  0x00\n  dup1\n  revert\ntag_1:\n  pop\n    /* \"contracts/FlightPolicy.sol\":640:650  msg.sender */\n  caller\n    /* \"contracts/FlightPolicy.sol\":630:637  insurer */\n  0x00\n  dup1\n    /* \"contracts/FlightPolicy.sol\":630:650  insurer = msg.sender */\n  0x0100\n  exp\n  dup2\n  sload\n  dup2\n  0xffffffffffffffffffffffffffffffffffffffff\n  mul\n  not\n  and\n  swap1\n  dup4\n  0xffffffffffffffffffffffffffffffffffffffff\n  and\n  mul\n  or\n  swap1\n  sstore\n  pop\n    /* \"contracts/FlightPolicy.sol\":60:2000  contract FlightInsuranceContract {... */\n  dataSize(sub_0)\n  dup1\n  dataOffset(sub_0)\n  0x00\n  codecopy\n  0x00\n  return\nstop\n\nsub_0: assembly {\n        /* \"contracts/FlightPolicy.sol\":60:2000  contract FlightInsuranceContract {... */\n      mstore(0x40, 0x80)\n      jumpi(tag_1, lt(calldatasize, 0x04))\n      shr(0xe0, calldataload(0x00))\n      dup1\n      0xa9b13651\n      gt\n      tag_10\n      jumpi\n      dup1\n      0xa9b13651\n      eq\n      tag_6\n      jumpi\n      dup1\n      0xdbc837c5\n      eq\n      tag_7\n      jumpi\n      dup1\n      0xe52223bb\n      eq\n      tag_8\n      jumpi\n      dup1\n      0xf582a21d\n      eq\n      tag_9\n      jumpi\n      jump(tag_1)\n    tag_10:\n      dup1\n      0x0951f7be\n      eq\n      tag_2\n      jumpi\n      dup1\n      0x3ccfd60b\n      eq\n      tag_3\n      jumpi\n      dup1\n      0x4615f58d\n      eq\n      tag_4\n      jumpi\n      dup1\n      0x9bddb69a\n      eq\n      tag_5\n      jumpi\n    tag_1:\n      0x00\n      dup1\n      revert\n        /* \"contracts/FlightPolicy.sol\":893:1381  function purchasePolicy() external payable {... */\n    tag_2:\n      tag_11\n      tag_12\n      jump\t// in\n    tag_11:\n      stop\n        /* \"contracts/FlightPolicy.sol\":1838:1997  function withdraw() external onlyInsurer {... */\n    tag_3:\n      callvalue\n      dup1\n      iszero\n      tag_13\n      jumpi\n      0x00\n      dup1\n      revert\n    tag_13:\n      pop\n      tag_14\n      tag_15\n      jump\t// in\n    tag_14:\n      stop\n        /* \"contracts/FlightPolicy.sol\":1389:1830  function processFlightDelay(address _policyholder, uint256 _compensation) external onlyInsurer {... */\n    tag_4:\n      callvalue\n      dup1\n      iszero\n      tag_16\n      jumpi\n      0x00\n      dup1\n      revert\n    tag_16:\n      pop\n      tag_17\n      0x04\n      dup1\n      calldatasize\n      sub\n      dup2\n      add\n      swap1\n      tag_18\n      swap2\n      swap1\n      tag_19\n      jump\t// in\n    tag_18:\n      tag_20\n      jump\t// in\n    tag_17:\n      stop\n        /* \"contracts/FlightPolicy.sol\":186:229  mapping(address => uint256) public premiums */\n    tag_5:\n      callvalue\n      dup1\n      iszero\n      tag_21\n      jumpi\n      0x00\n      dup1\n      revert\n    tag_21:\n      pop\n      tag_22\n      0x04\n      dup1\n      calldatasize\n      sub\n      dup2\n      add\n      swap1\n      tag_23\n      swap2\n      swap1\n      tag_24\n      jump\t// in\n    tag_23:\n      tag_25\n      jump\t// in\n    tag_22:\n      mload(0x40)\n      tag_26\n      swap2\n      swap1\n      tag_27\n      jump\t// in\n    tag_26:\n      mload(0x40)\n      dup1\n      swap2\n      sub\n      swap1\n      return\n        /* \"contracts/FlightPolicy.sol\":666:885  function setPremium(address _policyholder, uint256 _coverageAmount, uint256 _premium) external onlyInsurer {... */\n    tag_6:\n      callvalue\n      dup1\n      iszero\n      tag_28\n      jumpi\n      0x00\n      dup1\n      revert\n    tag_28:\n      pop\n      tag_29\n      0x04\n      dup1\n      calldatasize\n      sub\n      dup2\n      add\n      swap1\n      tag_30\n      swap2\n      swap1\n      tag_31\n      jump\t// in\n    tag_30:\n      tag_32\n      jump\t// in\n    tag_29:\n      stop\n        /* \"contracts/FlightPolicy.sol\":100:122  address public insurer */\n    tag_7:\n      callvalue\n      dup1\n      iszero\n      tag_33\n      jumpi\n      0x00\n      dup1\n      revert\n    tag_33:\n      pop\n      tag_34\n      tag_35\n      jump\t// in\n    tag_34:\n      mload(0x40)\n      tag_36\n      swap2\n      swap1\n      tag_37\n      jump\t// in\n    tag_36:\n      mload(0x40)\n      dup1\n      swap2\n      sub\n      swap1\n      return\n        /* \"contracts/FlightPolicy.sol\":236:282  mapping(address => bool) public isPolicyActive */\n    tag_8:\n      callvalue\n      dup1\n      iszero\n      tag_38\n      jumpi\n      0x00\n      dup1\n      revert\n    tag_38:\n      pop\n      tag_39\n      0x04\n      dup1\n      calldatasize\n      sub\n      dup2\n      add\n      swap1\n      tag_40\n      swap2\n      swap1\n      tag_24\n      jump\t// in\n    tag_40:\n      tag_41\n      jump\t// in\n    tag_39:\n      mload(0x40)\n      tag_42\n      swap2\n      swap1\n      tag_43\n      jump\t// in\n    tag_42:\n      mload(0x40)\n      dup1\n      swap2\n      sub\n      swap1\n      return\n        /* \"contracts/FlightPolicy.sol\":129:179  mapping(address => uint256) public coverageAmounts */\n    tag_9:\n      callvalue\n      dup1\n      iszero\n      tag_44\n      jumpi\n      0x00\n      dup1\n      revert\n    tag_44:\n      pop\n      tag_45\n      0x04\n      dup1\n      calldatasize\n      sub\n      dup2\n      add\n      swap1\n      tag_46\n      swap2\n      swap1\n      tag_24\n      jump\t// in\n    tag_46:\n      tag_47\n      jump\t// in\n    tag_45:\n      mload(0x40)\n      tag_48\n      swap2\n      swap1\n      tag_27\n      jump\t// in\n    tag_48:\n      mload(0x40)\n      dup1\n      swap2\n      sub\n      swap1\n      return\n        /* \"contracts/FlightPolicy.sol\":893:1381  function purchasePolicy() external payable {... */\n    tag_12:\n        /* \"contracts/FlightPolicy.sol\":985:986  9 */\n      0x09\n        /* \"contracts/FlightPolicy.sol\":955:970  coverageAmounts */\n      0x01\n        /* \"contracts/FlightPolicy.sol\":955:982  coverageAmounts[msg.sender] */\n      0x00\n        /* \"contracts/FlightPolicy.sol\":971:981  msg.sender */\n      caller\n        /* \"contracts/FlightPolicy.sol\":955:982  coverageAmounts[msg.sender] */\n      0xffffffffffffffffffffffffffffffffffffffff\n      and\n      0xffffffffffffffffffffffffffffffffffffffff\n      and\n      dup2\n      mstore\n      0x20\n      add\n      swap1\n      dup2\n      mstore\n      0x20\n      add\n      0x00\n      keccak256\n      sload\n        /* \"contracts/FlightPolicy.sol\":955:986  coverageAmounts[msg.sender] > 9 */\n      gt\n        /* \"contracts/FlightPolicy.sol\":947:1014  require(coverageAmounts[msg.sender] > 9, \"Coverage amount not set\") */\n      tag_50\n      jumpi\n      mload(0x40)\n      0x08c379a000000000000000000000000000000000000000000000000000000000\n      dup2\n      mstore\n      0x04\n      add\n      tag_51\n      swap1\n      tag_52\n      jump\t// in\n    tag_51:\n      mload(0x40)\n      dup1\n      swap2\n      sub\n      swap1\n      revert\n    tag_50:\n        /* \"contracts/FlightPolicy.sol\":1046:1054  premiums */\n      0x02\n        /* \"contracts/FlightPolicy.sol\":1046:1066  premiums[msg.sender] */\n      0x00\n        /* \"contracts/FlightPolicy.sol\":1055:1065  msg.sender */\n      caller\n        /* \"contracts/FlightPolicy.sol\":1046:1066  premiums[msg.sender] */\n      0xffffffffffffffffffffffffffffffffffffffff\n      and\n      0xffffffffffffffffffffffffffffffffffffffff\n      and\n      dup2\n      mstore\n      0x20\n      add\n      swap1\n      dup2\n      mstore\n      0x20\n      add\n      0x00\n      keccak256\n      sload\n        /* \"contracts/FlightPolicy.sol\":1033:1042  msg.value */\n      callvalue\n        /* \"contracts/FlightPolicy.sol\":1033:1066  msg.value == premiums[msg.sender] */\n      eq\n        /* \"contracts/FlightPolicy.sol\":1025:1095  require(msg.value == premiums[msg.sender], \"Incorrect premium amount\") */\n      tag_53\n      jumpi\n      mload(0x40)\n      0x08c379a000000000000000000000000000000000000000000000000000000000\n      dup2\n      mstore\n      0x04\n      add\n      tag_54\n      swap1\n      tag_55\n      jump\t// in\n    tag_54:\n      mload(0x40)\n      dup1\n      swap2\n      sub\n      swap1\n      revert\n    tag_53:\n        /* \"contracts/FlightPolicy.sol\":1115:1129  isPolicyActive */\n      0x03\n        /* \"contracts/FlightPolicy.sol\":1115:1141  isPolicyActive[msg.sender] */\n      0x00\n        /* \"contracts/FlightPolicy.sol\":1130:1140  msg.sender */\n      caller\n        /* \"contracts/FlightPolicy.sol\":1115:1141  isPolicyActive[msg.sender] */\n      0xffffffffffffffffffffffffffffffffffffffff\n      and\n      0xffffffffffffffffffffffffffffffffffffffff\n      and\n      dup2\n      mstore\n      0x20\n      add\n      swap1\n      dup2\n      mstore\n      0x20\n      add\n      0x00\n      keccak256\n      0x00\n      swap1\n      sload\n      swap1\n      0x0100\n      exp\n      swap1\n      div\n      0xff\n      and\n        /* \"contracts/FlightPolicy.sol\":1114:1141  !isPolicyActive[msg.sender] */\n      iszero\n        /* \"contracts/FlightPolicy.sol\":1106:1170  require(!isPolicyActive[msg.sender], \"Policy is already active\") */\n      tag_56\n      jumpi\n      mload(0x40)\n      0x08c379a000000000000000000000000000000000000000000000000000000000\n      dup2\n      mstore\n      0x04\n      add\n      tag_57\n      swap1\n      tag_58\n      jump\t// in\n    tag_57:\n      mload(0x40)\n      dup1\n      swap2\n      sub\n      swap1\n      revert\n    tag_56:\n        /* \"contracts/FlightPolicy.sol\":1212:1216  true */\n      0x01\n        /* \"contracts/FlightPolicy.sol\":1183:1197  isPolicyActive */\n      0x03\n        /* \"contracts/FlightPolicy.sol\":1183:1209  isPolicyActive[msg.sender] */\n      0x00\n        /* \"contracts/FlightPolicy.sol\":1198:1208  msg.sender */\n      caller\n        /* \"contracts/FlightPolicy.sol\":1183:1209  isPolicyActive[msg.sender] */\n      0xffffffffffffffffffffffffffffffffffffffff\n      and\n      0xffffffffffffffffffffffffffffffffffffffff\n      and\n      dup2\n      mstore\n      0x20\n      add\n      swap1\n      dup2\n      mstore\n      0x20\n      add\n      0x00\n      keccak256\n      0x00\n        /* \"contracts/FlightPolicy.sol\":1183:1216  isPolicyActive[msg.sender] = true */\n      0x0100\n      exp\n      dup2\n      sload\n      dup2\n      0xff\n      mul\n      not\n      and\n      swap1\n      dup4\n      iszero\n      iszero\n      mul\n      or\n      swap1\n      sstore\n      pop\n        /* \"contracts/FlightPolicy.sol\":1311:1321  msg.sender */\n      caller\n        /* \"contracts/FlightPolicy.sol\":1295:1373  PolicyPurchased(msg.sender, coverageAmounts[msg.sender], premiums[msg.sender]) */\n      0xffffffffffffffffffffffffffffffffffffffff\n      and\n      0xe3a4e855ca574024873a64ada77dfdb7f1342b982fbfe29edf24be638f20d398\n        /* \"contracts/FlightPolicy.sol\":1323:1338  coverageAmounts */\n      0x01\n        /* \"contracts/FlightPolicy.sol\":1323:1350  coverageAmounts[msg.sender] */\n      0x00\n        /* \"contracts/FlightPolicy.sol\":1339:1349  msg.sender */\n      caller\n        /* \"contracts/FlightPolicy.sol\":1323:1350  coverageAmounts[msg.sender] */\n      0xffffffffffffffffffffffffffffffffffffffff\n      and\n      0xffffffffffffffffffffffffffffffffffffffff\n      and\n      dup2\n      mstore\n      0x20\n      add\n      swap1\n      dup2\n      mstore\n      0x20\n      add\n      0x00\n      keccak256\n      sload\n        /* \"contracts/FlightPolicy.sol\":1352:1360  premiums */\n      0x02\n        /* \"contracts/FlightPolicy.sol\":1352:1372  premiums[msg.sender] */\n      0x00\n        /* \"contracts/FlightPolicy.sol\":1361:1371  msg.sender */\n      caller\n        /* \"contracts/FlightPolicy.sol\":1352:1372  premiums[msg.sender] */\n      0xffffffffffffffffffffffffffffffffffffffff\n      and\n      0xffffffffffffffffffffffffffffffffffffffff\n      and\n      dup2\n      mstore\n      0x20\n      add\n      swap1\n      dup2\n      mstore\n      0x20\n      add\n      0x00\n      keccak256\n      sload\n        /* \"contracts/FlightPolicy.sol\":1295:1373  PolicyPurchased(msg.sender, coverageAmounts[msg.sender], premiums[msg.sender]) */\n      mload(0x40)\n      tag_59\n      swap3\n      swap2\n      swap1\n      tag_60\n      jump\t// in\n    tag_59:\n      mload(0x40)\n      dup1\n      swap2\n      sub\n      swap1\n      log2\n        /* \"contracts/FlightPolicy.sol\":893:1381  function purchasePolicy() external payable {... */\n      jump\t// out\n        /* \"contracts/FlightPolicy.sol\":1838:1997  function withdraw() external onlyInsurer {... */\n    tag_15:\n        /* \"contracts/FlightPolicy.sol\":526:533  insurer */\n      0x00\n      dup1\n      sload\n      swap1\n      0x0100\n      exp\n      swap1\n      div\n      0xffffffffffffffffffffffffffffffffffffffff\n      and\n        /* \"contracts/FlightPolicy.sol\":512:533  msg.sender == insurer */\n      0xffffffffffffffffffffffffffffffffffffffff\n      and\n        /* \"contracts/FlightPolicy.sol\":512:522  msg.sender */\n      caller\n        /* \"contracts/FlightPolicy.sol\":512:533  msg.sender == insurer */\n      0xffffffffffffffffffffffffffffffffffffffff\n      and\n      eq\n        /* \"contracts/FlightPolicy.sol\":504:577  require(msg.sender == insurer, \"Only the insurer can call this function\") */\n      tag_62\n      jumpi\n      mload(0x40)\n      0x08c379a000000000000000000000000000000000000000000000000000000000\n      dup2\n      mstore\n      0x04\n      add\n      tag_63\n      swap1\n      tag_64\n      jump\t// in\n    tag_63:\n      mload(0x40)\n      dup1\n      swap2\n      sub\n      swap1\n      revert\n    tag_62:\n        /* \"contracts/FlightPolicy.sol\":1949:1956  insurer */\n      0x00\n      dup1\n      sload\n      swap1\n      0x0100\n      exp\n      swap1\n      div\n      0xffffffffffffffffffffffffffffffffffffffff\n      and\n        /* \"contracts/FlightPolicy.sol\":1941:1966  payable(insurer).transfer */\n      0xffffffffffffffffffffffffffffffffffffffff\n      and\n        /* \"contracts/FlightPolicy.sol\":1941:1989  payable(insurer).transfer(address(this).balance) */\n      0x08fc\n        /* \"contracts/FlightPolicy.sol\":1967:1988  address(this).balance */\n      selfbalance\n        /* \"contracts/FlightPolicy.sol\":1941:1989  payable(insurer).transfer(address(this).balance) */\n      swap1\n      dup2\n      iszero\n      mul\n      swap1\n      mload(0x40)\n      0x00\n      mload(0x40)\n      dup1\n      dup4\n      sub\n      dup2\n      dup6\n      dup9\n      dup9\n      call\n      swap4\n      pop\n      pop\n      pop\n      pop\n      iszero\n      dup1\n      iszero\n      tag_67\n      jumpi\n      returndatasize\n      0x00\n      dup1\n      returndatacopy\n      revert(0x00, returndatasize)\n    tag_67:\n      pop\n        /* \"contracts/FlightPolicy.sol\":1838:1997  function withdraw() external onlyInsurer {... */\n      jump\t// out\n        /* \"contracts/FlightPolicy.sol\":1389:1830  function processFlightDelay(address _policyholder, uint256 _compensation) external onlyInsurer {... */\n    tag_20:\n        /* \"contracts/FlightPolicy.sol\":526:533  insurer */\n      0x00\n      dup1\n      sload\n      swap1\n      0x0100\n      exp\n      swap1\n      div\n      0xffffffffffffffffffffffffffffffffffffffff\n      and\n        /* \"contracts/FlightPolicy.sol\":512:533  msg.sender == insurer */\n      0xffffffffffffffffffffffffffffffffffffffff\n      and\n        /* \"contracts/FlightPolicy.sol\":512:522  msg.sender */\n      caller\n        /* \"contracts/FlightPolicy.sol\":512:533  msg.sender == insurer */\n      0xffffffffffffffffffffffffffffffffffffffff\n      and\n      eq\n        /* \"contracts/FlightPolicy.sol\":504:577  require(msg.sender == insurer, \"Only the insurer can call this function\") */\n      tag_69\n      jumpi\n      mload(0x40)\n      0x08c379a000000000000000000000000000000000000000000000000000000000\n      dup2\n      mstore\n      0x04\n      add\n      tag_70\n      swap1\n      tag_64\n      jump\t// in\n    tag_70:\n      mload(0x40)\n      dup1\n      swap2\n      sub\n      swap1\n      revert\n    tag_69:\n        /* \"contracts/FlightPolicy.sol\":1503:1517  isPolicyActive */\n      0x03\n        /* \"contracts/FlightPolicy.sol\":1503:1532  isPolicyActive[_policyholder] */\n      0x00\n        /* \"contracts/FlightPolicy.sol\":1518:1531  _policyholder */\n      dup4\n        /* \"contracts/FlightPolicy.sol\":1503:1532  isPolicyActive[_policyholder] */\n      0xffffffffffffffffffffffffffffffffffffffff\n      and\n      0xffffffffffffffffffffffffffffffffffffffff\n      and\n      dup2\n      mstore\n      0x20\n      add\n      swap1\n      dup2\n      mstore\n      0x20\n      add\n      0x00\n      keccak256\n      0x00\n      swap1\n      sload\n      swap1\n      0x0100\n      exp\n      swap1\n      div\n      0xff\n      and\n        /* \"contracts/FlightPolicy.sol\":1495:1554  require(isPolicyActive[_policyholder], \"Policy not active\") */\n      tag_72\n      jumpi\n      mload(0x40)\n      0x08c379a000000000000000000000000000000000000000000000000000000000\n      dup2\n      mstore\n      0x04\n      add\n      tag_73\n      swap1\n      tag_74\n      jump\t// in\n    tag_73:\n      mload(0x40)\n      dup1\n      swap2\n      sub\n      swap1\n      revert\n    tag_72:\n        /* \"contracts/FlightPolicy.sol\":1725:1738  _policyholder */\n      dup2\n        /* \"contracts/FlightPolicy.sol\":1717:1748  payable(_policyholder).transfer */\n      0xffffffffffffffffffffffffffffffffffffffff\n      and\n        /* \"contracts/FlightPolicy.sol\":1717:1763  payable(_policyholder).transfer(_compensation) */\n      0x08fc\n        /* \"contracts/FlightPolicy.sol\":1749:1762  _compensation */\n      dup3\n        /* \"contracts/FlightPolicy.sol\":1717:1763  payable(_policyholder).transfer(_compensation) */\n      swap1\n      dup2\n      iszero\n      mul\n      swap1\n      mload(0x40)\n      0x00\n      mload(0x40)\n      dup1\n      dup4\n      sub\n      dup2\n      dup6\n      dup9\n      dup9\n      call\n      swap4\n      pop\n      pop\n      pop\n      pop\n      iszero\n      dup1\n      iszero\n      tag_76\n      jumpi\n      returndatasize\n      0x00\n      dup1\n      returndatacopy\n      revert(0x00, returndatasize)\n    tag_76:\n      pop\n        /* \"contracts/FlightPolicy.sol\":1793:1806  _policyholder */\n      dup2\n        /* \"contracts/FlightPolicy.sol\":1779:1822  FlightDelayed(_policyholder, _compensation) */\n      0xffffffffffffffffffffffffffffffffffffffff\n      and\n      0x76b4500f4ad24a8f306b6bfcc914b577976c4344d2dc58c6df455649cfca4e4b\n        /* \"contracts/FlightPolicy.sol\":1808:1821  _compensation */\n      dup3\n        /* \"contracts/FlightPolicy.sol\":1779:1822  FlightDelayed(_policyholder, _compensation) */\n      mload(0x40)\n      tag_77\n      swap2\n      swap1\n      tag_27\n      jump\t// in\n    tag_77:\n      mload(0x40)\n      dup1\n      swap2\n      sub\n      swap1\n      log2\n        /* \"contracts/FlightPolicy.sol\":1389:1830  function processFlightDelay(address _policyholder, uint256 _compensation) external onlyInsurer {... */\n      pop\n      pop\n      jump\t// out\n        /* \"contracts/FlightPolicy.sol\":186:229  mapping(address => uint256) public premiums */\n    tag_25:\n      mstore(0x20, 0x02)\n      dup1\n      0x00\n      mstore\n      keccak256(0x00, 0x40)\n      0x00\n      swap2\n      pop\n      swap1\n      pop\n      sload\n      dup2\n      jump\t// out\n        /* \"contracts/FlightPolicy.sol\":666:885  function setPremium(address _policyholder, uint256 _coverageAmount, uint256 _premium) external onlyInsurer {... */\n    tag_32:\n        /* \"contracts/FlightPolicy.sol\":526:533  insurer */\n      0x00\n      dup1\n      sload\n      swap1\n      0x0100\n      exp\n      swap1\n      div\n      0xffffffffffffffffffffffffffffffffffffffff\n      and\n        /* \"contracts/FlightPolicy.sol\":512:533  msg.sender == insurer */\n      0xffffffffffffffffffffffffffffffffffffffff\n      and\n        /* \"contracts/FlightPolicy.sol\":512:522  msg.sender */\n      caller\n        /* \"contracts/FlightPolicy.sol\":512:533  msg.sender == insurer */\n      0xffffffffffffffffffffffffffffffffffffffff\n      and\n      eq\n        /* \"contracts/FlightPolicy.sol\":504:577  require(msg.sender == insurer, \"Only the insurer can call this function\") */\n      tag_79\n      jumpi\n      mload(0x40)\n      0x08c379a000000000000000000000000000000000000000000000000000000000\n      dup2\n      mstore\n      0x04\n      add\n      tag_80\n      swap1\n      tag_64\n      jump\t// in\n    tag_80:\n      mload(0x40)\n      dup1\n      swap2\n      sub\n      swap1\n      revert\n    tag_79:\n        /* \"contracts/FlightPolicy.sol\":817:832  _coverageAmount */\n      dup2\n        /* \"contracts/FlightPolicy.sol\":784:799  coverageAmounts */\n      0x01\n        /* \"contracts/FlightPolicy.sol\":784:814  coverageAmounts[_policyholder] */\n      0x00\n        /* \"contracts/FlightPolicy.sol\":800:813  _policyholder */\n      dup6\n        /* \"contracts/FlightPolicy.sol\":784:814  coverageAmounts[_policyholder] */\n      0xffffffffffffffffffffffffffffffffffffffff\n      and\n      0xffffffffffffffffffffffffffffffffffffffff\n      and\n      dup2\n      mstore\n      0x20\n      add\n      swap1\n      dup2\n      mstore\n      0x20\n      add\n      0x00\n      keccak256\n        /* \"contracts/FlightPolicy.sol\":784:832  coverageAmounts[_policyholder] = _coverageAmount */\n      dup2\n      swap1\n      sstore\n      pop\n        /* \"contracts/FlightPolicy.sol\":869:877  _premium */\n      dup1\n        /* \"contracts/FlightPolicy.sol\":843:851  premiums */\n      0x02\n        /* \"contracts/FlightPolicy.sol\":843:866  premiums[_policyholder] */\n      0x00\n        /* \"contracts/FlightPolicy.sol\":852:865  _policyholder */\n      dup6\n        /* \"contracts/FlightPolicy.sol\":843:866  premiums[_policyholder] */\n      0xffffffffffffffffffffffffffffffffffffffff\n      and\n      0xffffffffffffffffffffffffffffffffffffffff\n      and\n      dup2\n      mstore\n      0x20\n      add\n      swap1\n      dup2\n      mstore\n      0x20\n      add\n      0x00\n      keccak256\n        /* \"contracts/FlightPolicy.sol\":843:877  premiums[_policyholder] = _premium */\n      dup2\n      swap1\n      sstore\n      pop\n        /* \"contracts/FlightPolicy.sol\":666:885  function setPremium(address _policyholder, uint256 _coverageAmount, uint256 _premium) external onlyInsurer {... */\n      pop\n      pop\n      pop\n      jump\t// out\n        /* \"contracts/FlightPolicy.sol\":100:122  address public insurer */\n    tag_35:\n      0x00\n      dup1\n      sload\n      swap1\n      0x0100\n      exp\n      swap1\n      div\n      0xffffffffffffffffffffffffffffffffffffffff\n      and\n      dup2\n      jump\t// out\n        /* \"contracts/FlightPolicy.sol\":236:282  mapping(address => bool) public isPolicyActive */\n    tag_41:\n      mstore(0x20, 0x03)\n      dup1\n      0x00\n      mstore\n      keccak256(0x00, 0x40)\n      0x00\n      swap2\n      pop\n      sload\n      swap1\n      0x0100\n      exp\n      swap1\n      div\n      0xff\n      and\n      dup2\n      jump\t// out\n        /* \"contracts/FlightPolicy.sol\":129:179  mapping(address => uint256) public coverageAmounts */\n    tag_47:\n      mstore(0x20, 0x01)\n      dup1\n      0x00\n      mstore\n      keccak256(0x00, 0x40)\n      0x00\n      swap2\n      pop\n      swap1\n      pop\n      sload\n      dup2\n      jump\t// out\n        /* \"#utility.yul\":88:205   */\n    tag_83:\n        /* \"#utility.yul\":197:198   */\n      0x00\n        /* \"#utility.yul\":194:195   */\n      dup1\n        /* \"#utility.yul\":187:199   */\n      revert\n        /* \"#utility.yul\":334:460   */\n    tag_85:\n        /* \"#utility.yul\":371:378   */\n      0x00\n        /* \"#utility.yul\":411:453   */\n      0xffffffffffffffffffffffffffffffffffffffff\n        /* \"#utility.yul\":404:409   */\n      dup3\n        /* \"#utility.yul\":400:454   */\n      and\n        /* \"#utility.yul\":389:454   */\n      swap1\n      pop\n        /* \"#utility.yul\":334:460   */\n      swap2\n      swap1\n      pop\n      jump\t// out\n        /* \"#utility.yul\":466:562   */\n    tag_86:\n        /* \"#utility.yul\":503:510   */\n      0x00\n        /* \"#utility.yul\":532:556   */\n      tag_113\n        /* \"#utility.yul\":550:555   */\n      dup3\n        /* \"#utility.yul\":532:556   */\n      tag_85\n      jump\t// in\n    tag_113:\n        /* \"#utility.yul\":521:556   */\n      swap1\n      pop\n        /* \"#utility.yul\":466:562   */\n      swap2\n      swap1\n      pop\n      jump\t// out\n        /* \"#utility.yul\":568:690   */\n    tag_87:\n        /* \"#utility.yul\":641:665   */\n      tag_115\n        /* \"#utility.yul\":659:664   */\n      dup2\n        /* \"#utility.yul\":641:665   */\n      tag_86\n      jump\t// in\n    tag_115:\n        /* \"#utility.yul\":634:639   */\n      dup2\n        /* \"#utility.yul\":631:666   */\n      eq\n        /* \"#utility.yul\":621:684   */\n      tag_116\n      jumpi\n        /* \"#utility.yul\":680:681   */\n      0x00\n        /* \"#utility.yul\":677:678   */\n      dup1\n        /* \"#utility.yul\":670:682   */\n      revert\n        /* \"#utility.yul\":621:684   */\n    tag_116:\n        /* \"#utility.yul\":568:690   */\n      pop\n      jump\t// out\n        /* \"#utility.yul\":696:835   */\n    tag_88:\n        /* \"#utility.yul\":742:747   */\n      0x00\n        /* \"#utility.yul\":780:786   */\n      dup2\n        /* \"#utility.yul\":767:787   */\n      calldataload\n        /* \"#utility.yul\":758:787   */\n      swap1\n      pop\n        /* \"#utility.yul\":796:829   */\n      tag_118\n        /* \"#utility.yul\":823:828   */\n      dup2\n        /* \"#utility.yul\":796:829   */\n      tag_87\n      jump\t// in\n    tag_118:\n        /* \"#utility.yul\":696:835   */\n      swap3\n      swap2\n      pop\n      pop\n      jump\t// out\n        /* \"#utility.yul\":841:918   */\n    tag_89:\n        /* \"#utility.yul\":878:885   */\n      0x00\n        /* \"#utility.yul\":907:912   */\n      dup2\n        /* \"#utility.yul\":896:912   */\n      swap1\n      pop\n        /* \"#utility.yul\":841:918   */\n      swap2\n      swap1\n      pop\n      jump\t// out\n        /* \"#utility.yul\":924:1046   */\n    tag_90:\n        /* \"#utility.yul\":997:1021   */\n      tag_121\n        /* \"#utility.yul\":1015:1020   */\n      dup2\n        /* \"#utility.yul\":997:1021   */\n      tag_89\n      jump\t// in\n    tag_121:\n        /* \"#utility.yul\":990:995   */\n      dup2\n        /* \"#utility.yul\":987:1022   */\n      eq\n        /* \"#utility.yul\":977:1040   */\n      tag_122\n      jumpi\n        /* \"#utility.yul\":1036:1037   */\n      0x00\n        /* \"#utility.yul\":1033:1034   */\n      dup1\n        /* \"#utility.yul\":1026:1038   */\n      revert\n        /* \"#utility.yul\":977:1040   */\n    tag_122:\n        /* \"#utility.yul\":924:1046   */\n      pop\n      jump\t// out\n        /* \"#utility.yul\":1052:1191   */\n    tag_91:\n        /* \"#utility.yul\":1098:1103   */\n      0x00\n        /* \"#utility.yul\":1136:1142   */\n      dup2\n        /* \"#utility.yul\":1123:1143   */\n      calldataload\n        /* \"#utility.yul\":1114:1143   */\n      swap1\n      pop\n        /* \"#utility.yul\":1152:1185   */\n      tag_124\n        /* \"#utility.yul\":1179:1184   */\n      dup2\n        /* \"#utility.yul\":1152:1185   */\n      tag_90\n      jump\t// in\n    tag_124:\n        /* \"#utility.yul\":1052:1191   */\n      swap3\n      swap2\n      pop\n      pop\n      jump\t// out\n        /* \"#utility.yul\":1197:1671   */\n    tag_19:\n        /* \"#utility.yul\":1265:1271   */\n      0x00\n        /* \"#utility.yul\":1273:1279   */\n      dup1\n        /* \"#utility.yul\":1322:1324   */\n      0x40\n        /* \"#utility.yul\":1310:1319   */\n      dup4\n        /* \"#utility.yul\":1301:1308   */\n      dup6\n        /* \"#utility.yul\":1297:1320   */\n      sub\n        /* \"#utility.yul\":1293:1325   */\n      slt\n        /* \"#utility.yul\":1290:1409   */\n      iszero\n      tag_126\n      jumpi\n        /* \"#utility.yul\":1328:1407   */\n      tag_127\n      tag_83\n      jump\t// in\n    tag_127:\n        /* \"#utility.yul\":1290:1409   */\n    tag_126:\n        /* \"#utility.yul\":1448:1449   */\n      0x00\n        /* \"#utility.yul\":1473:1526   */\n      tag_128\n        /* \"#utility.yul\":1518:1525   */\n      dup6\n        /* \"#utility.yul\":1509:1515   */\n      dup3\n        /* \"#utility.yul\":1498:1507   */\n      dup7\n        /* \"#utility.yul\":1494:1516   */\n      add\n        /* \"#utility.yul\":1473:1526   */\n      tag_88\n      jump\t// in\n    tag_128:\n        /* \"#utility.yul\":1463:1526   */\n      swap3\n      pop\n        /* \"#utility.yul\":1419:1536   */\n      pop\n        /* \"#utility.yul\":1575:1577   */\n      0x20\n        /* \"#utility.yul\":1601:1654   */\n      tag_129\n        /* \"#utility.yul\":1646:1653   */\n      dup6\n        /* \"#utility.yul\":1637:1643   */\n      dup3\n        /* \"#utility.yul\":1626:1635   */\n      dup7\n        /* \"#utility.yul\":1622:1644   */\n      add\n        /* \"#utility.yul\":1601:1654   */\n      tag_91\n      jump\t// in\n    tag_129:\n        /* \"#utility.yul\":1591:1654   */\n      swap2\n      pop\n        /* \"#utility.yul\":1546:1664   */\n      pop\n        /* \"#utility.yul\":1197:1671   */\n      swap3\n      pop\n      swap3\n      swap1\n      pop\n      jump\t// out\n        /* \"#utility.yul\":1677:2006   */\n    tag_24:\n        /* \"#utility.yul\":1736:1742   */\n      0x00\n        /* \"#utility.yul\":1785:1787   */\n      0x20\n        /* \"#utility.yul\":1773:1782   */\n      dup3\n        /* \"#utility.yul\":1764:1771   */\n      dup5\n        /* \"#utility.yul\":1760:1783   */\n      sub\n        /* \"#utility.yul\":1756:1788   */\n      slt\n        /* \"#utility.yul\":1753:1872   */\n      iszero\n      tag_131\n      jumpi\n        /* \"#utility.yul\":1791:1870   */\n      tag_132\n      tag_83\n      jump\t// in\n    tag_132:\n        /* \"#utility.yul\":1753:1872   */\n    tag_131:\n        /* \"#utility.yul\":1911:1912   */\n      0x00\n        /* \"#utility.yul\":1936:1989   */\n      tag_133\n        /* \"#utility.yul\":1981:1988   */\n      dup5\n        /* \"#utility.yul\":1972:1978   */\n      dup3\n        /* \"#utility.yul\":1961:1970   */\n      dup6\n        /* \"#utility.yul\":1957:1979   */\n      add\n        /* \"#utility.yul\":1936:1989   */\n      tag_88\n      jump\t// in\n    tag_133:\n        /* \"#utility.yul\":1926:1989   */\n      swap2\n      pop\n        /* \"#utility.yul\":1882:1999   */\n      pop\n        /* \"#utility.yul\":1677:2006   */\n      swap3\n      swap2\n      pop\n      pop\n      jump\t// out\n        /* \"#utility.yul\":2012:2130   */\n    tag_92:\n        /* \"#utility.yul\":2099:2123   */\n      tag_135\n        /* \"#utility.yul\":2117:2122   */\n      dup2\n        /* \"#utility.yul\":2099:2123   */\n      tag_89\n      jump\t// in\n    tag_135:\n        /* \"#utility.yul\":2094:2097   */\n      dup3\n        /* \"#utility.yul\":2087:2124   */\n      mstore\n        /* \"#utility.yul\":2012:2130   */\n      pop\n      pop\n      jump\t// out\n        /* \"#utility.yul\":2136:2358   */\n    tag_27:\n        /* \"#utility.yul\":2229:2233   */\n      0x00\n        /* \"#utility.yul\":2267:2269   */\n      0x20\n        /* \"#utility.yul\":2256:2265   */\n      dup3\n        /* \"#utility.yul\":2252:2270   */\n      add\n        /* \"#utility.yul\":2244:2270   */\n      swap1\n      pop\n        /* \"#utility.yul\":2280:2351   */\n      tag_137\n        /* \"#utility.yul\":2348:2349   */\n      0x00\n        /* \"#utility.yul\":2337:2346   */\n      dup4\n        /* \"#utility.yul\":2333:2350   */\n      add\n        /* \"#utility.yul\":2324:2330   */\n      dup5\n        /* \"#utility.yul\":2280:2351   */\n      tag_92\n      jump\t// in\n    tag_137:\n        /* \"#utility.yul\":2136:2358   */\n      swap3\n      swap2\n      pop\n      pop\n      jump\t// out\n        /* \"#utility.yul\":2364:2983   */\n    tag_31:\n        /* \"#utility.yul\":2441:2447   */\n      0x00\n        /* \"#utility.yul\":2449:2455   */\n      dup1\n        /* \"#utility.yul\":2457:2463   */\n      0x00\n        /* \"#utility.yul\":2506:2508   */\n      0x60\n        /* \"#utility.yul\":2494:2503   */\n      dup5\n        /* \"#utility.yul\":2485:2492   */\n      dup7\n        /* \"#utility.yul\":2481:2504   */\n      sub\n        /* \"#utility.yul\":2477:2509   */\n      slt\n        /* \"#utility.yul\":2474:2593   */\n      iszero\n      tag_139\n      jumpi\n        /* \"#utility.yul\":2512:2591   */\n      tag_140\n      tag_83\n      jump\t// in\n    tag_140:\n        /* \"#utility.yul\":2474:2593   */\n    tag_139:\n        /* \"#utility.yul\":2632:2633   */\n      0x00\n        /* \"#utility.yul\":2657:2710   */\n      tag_141\n        /* \"#utility.yul\":2702:2709   */\n      dup7\n        /* \"#utility.yul\":2693:2699   */\n      dup3\n        /* \"#utility.yul\":2682:2691   */\n      dup8\n        /* \"#utility.yul\":2678:2700   */\n      add\n        /* \"#utility.yul\":2657:2710   */\n      tag_88\n      jump\t// in\n    tag_141:\n        /* \"#utility.yul\":2647:2710   */\n      swap4\n      pop\n        /* \"#utility.yul\":2603:2720   */\n      pop\n        /* \"#utility.yul\":2759:2761   */\n      0x20\n        /* \"#utility.yul\":2785:2838   */\n      tag_142\n        /* \"#utility.yul\":2830:2837   */\n      dup7\n        /* \"#utility.yul\":2821:2827   */\n      dup3\n        /* \"#utility.yul\":2810:2819   */\n      dup8\n        /* \"#utility.yul\":2806:2828   */\n      add\n        /* \"#utility.yul\":2785:2838   */\n      tag_91\n      jump\t// in\n    tag_142:\n        /* \"#utility.yul\":2775:2838   */\n      swap3\n      pop\n        /* \"#utility.yul\":2730:2848   */\n      pop\n        /* \"#utility.yul\":2887:2889   */\n      0x40\n        /* \"#utility.yul\":2913:2966   */\n      tag_143\n        /* \"#utility.yul\":2958:2965   */\n      dup7\n        /* \"#utility.yul\":2949:2955   */\n      dup3\n        /* \"#utility.yul\":2938:2947   */\n      dup8\n        /* \"#utility.yul\":2934:2956   */\n      add\n        /* \"#utility.yul\":2913:2966   */\n      tag_91\n      jump\t// in\n    tag_143:\n        /* \"#utility.yul\":2903:2966   */\n      swap2\n      pop\n        /* \"#utility.yul\":2858:2976   */\n      pop\n        /* \"#utility.yul\":2364:2983   */\n      swap3\n      pop\n      swap3\n      pop\n      swap3\n      jump\t// out\n        /* \"#utility.yul\":2989:3107   */\n    tag_93:\n        /* \"#utility.yul\":3076:3100   */\n      tag_145\n        /* \"#utility.yul\":3094:3099   */\n      dup2\n        /* \"#utility.yul\":3076:3100   */\n      tag_86\n      jump\t// in\n    tag_145:\n        /* \"#utility.yul\":3071:3074   */\n      dup3\n        /* \"#utility.yul\":3064:3101   */\n      mstore\n        /* \"#utility.yul\":2989:3107   */\n      pop\n      pop\n      jump\t// out\n        /* \"#utility.yul\":3113:3335   */\n    tag_37:\n        /* \"#utility.yul\":3206:3210   */\n      0x00\n        /* \"#utility.yul\":3244:3246   */\n      0x20\n        /* \"#utility.yul\":3233:3242   */\n      dup3\n        /* \"#utility.yul\":3229:3247   */\n      add\n        /* \"#utility.yul\":3221:3247   */\n      swap1\n      pop\n        /* \"#utility.yul\":3257:3328   */\n      tag_147\n        /* \"#utility.yul\":3325:3326   */\n      0x00\n        /* \"#utility.yul\":3314:3323   */\n      dup4\n        /* \"#utility.yul\":3310:3327   */\n      add\n        /* \"#utility.yul\":3301:3307   */\n      dup5\n        /* \"#utility.yul\":3257:3328   */\n      tag_93\n      jump\t// in\n    tag_147:\n        /* \"#utility.yul\":3113:3335   */\n      swap3\n      swap2\n      pop\n      pop\n      jump\t// out\n        /* \"#utility.yul\":3341:3431   */\n    tag_94:\n        /* \"#utility.yul\":3375:3382   */\n      0x00\n        /* \"#utility.yul\":3418:3423   */\n      dup2\n        /* \"#utility.yul\":3411:3424   */\n      iszero\n        /* \"#utility.yul\":3404:3425   */\n      iszero\n        /* \"#utility.yul\":3393:3425   */\n      swap1\n      pop\n        /* \"#utility.yul\":3341:3431   */\n      swap2\n      swap1\n      pop\n      jump\t// out\n        /* \"#utility.yul\":3437:3546   */\n    tag_95:\n        /* \"#utility.yul\":3518:3539   */\n      tag_150\n        /* \"#utility.yul\":3533:3538   */\n      dup2\n        /* \"#utility.yul\":3518:3539   */\n      tag_94\n      jump\t// in\n    tag_150:\n        /* \"#utility.yul\":3513:3516   */\n      dup3\n        /* \"#utility.yul\":3506:3540   */\n      mstore\n        /* \"#utility.yul\":3437:3546   */\n      pop\n      pop\n      jump\t// out\n        /* \"#utility.yul\":3552:3762   */\n    tag_43:\n        /* \"#utility.yul\":3639:3643   */\n      0x00\n        /* \"#utility.yul\":3677:3679   */\n      0x20\n        /* \"#utility.yul\":3666:3675   */\n      dup3\n        /* \"#utility.yul\":3662:3680   */\n      add\n        /* \"#utility.yul\":3654:3680   */\n      swap1\n      pop\n        /* \"#utility.yul\":3690:3755   */\n      tag_152\n        /* \"#utility.yul\":3752:3753   */\n      0x00\n        /* \"#utility.yul\":3741:3750   */\n      dup4\n        /* \"#utility.yul\":3737:3754   */\n      add\n        /* \"#utility.yul\":3728:3734   */\n      dup5\n        /* \"#utility.yul\":3690:3755   */\n      tag_95\n      jump\t// in\n    tag_152:\n        /* \"#utility.yul\":3552:3762   */\n      swap3\n      swap2\n      pop\n      pop\n      jump\t// out\n        /* \"#utility.yul\":3768:3937   */\n    tag_96:\n        /* \"#utility.yul\":3852:3863   */\n      0x00\n        /* \"#utility.yul\":3886:3892   */\n      dup3\n        /* \"#utility.yul\":3881:3884   */\n      dup3\n        /* \"#utility.yul\":3874:3893   */\n      mstore\n        /* \"#utility.yul\":3926:3930   */\n      0x20\n        /* \"#utility.yul\":3921:3924   */\n      dup3\n        /* \"#utility.yul\":3917:3931   */\n      add\n        /* \"#utility.yul\":3902:3931   */\n      swap1\n      pop\n        /* \"#utility.yul\":3768:3937   */\n      swap3\n      swap2\n      pop\n      pop\n      jump\t// out\n        /* \"#utility.yul\":3943:4116   */\n    tag_97:\n        /* \"#utility.yul\":4083:4108   */\n      0x436f76657261676520616d6f756e74206e6f7420736574000000000000000000\n        /* \"#utility.yul\":4079:4080   */\n      0x00\n        /* \"#utility.yul\":4071:4077   */\n      dup3\n        /* \"#utility.yul\":4067:4081   */\n      add\n        /* \"#utility.yul\":4060:4109   */\n      mstore\n        /* \"#utility.yul\":3943:4116   */\n      pop\n      jump\t// out\n        /* \"#utility.yul\":4122:4488   */\n    tag_98:\n        /* \"#utility.yul\":4264:4267   */\n      0x00\n        /* \"#utility.yul\":4285:4352   */\n      tag_156\n        /* \"#utility.yul\":4349:4351   */\n      0x17\n        /* \"#utility.yul\":4344:4347   */\n      dup4\n        /* \"#utility.yul\":4285:4352   */\n      tag_96\n      jump\t// in\n    tag_156:\n        /* \"#utility.yul\":4278:4352   */\n      swap2\n      pop\n        /* \"#utility.yul\":4361:4454   */\n      tag_157\n        /* \"#utility.yul\":4450:4453   */\n      dup3\n        /* \"#utility.yul\":4361:4454   */\n      tag_97\n      jump\t// in\n    tag_157:\n        /* \"#utility.yul\":4479:4481   */\n      0x20\n        /* \"#utility.yul\":4474:4477   */\n      dup3\n        /* \"#utility.yul\":4470:4482   */\n      add\n        /* \"#utility.yul\":4463:4482   */\n      swap1\n      pop\n        /* \"#utility.yul\":4122:4488   */\n      swap2\n      swap1\n      pop\n      jump\t// out\n        /* \"#utility.yul\":4494:4913   */\n    tag_52:\n        /* \"#utility.yul\":4660:4664   */\n      0x00\n        /* \"#utility.yul\":4698:4700   */\n      0x20\n        /* \"#utility.yul\":4687:4696   */\n      dup3\n        /* \"#utility.yul\":4683:4701   */\n      add\n        /* \"#utility.yul\":4675:4701   */\n      swap1\n      pop\n        /* \"#utility.yul\":4747:4756   */\n      dup2\n        /* \"#utility.yul\":4741:4745   */\n      dup2\n        /* \"#utility.yul\":4737:4757   */\n      sub\n        /* \"#utility.yul\":4733:4734   */\n      0x00\n        /* \"#utility.yul\":4722:4731   */\n      dup4\n        /* \"#utility.yul\":4718:4735   */\n      add\n        /* \"#utility.yul\":4711:4758   */\n      mstore\n        /* \"#utility.yul\":4775:4906   */\n      tag_159\n        /* \"#utility.yul\":4901:4905   */\n      dup2\n        /* \"#utility.yul\":4775:4906   */\n      tag_98\n      jump\t// in\n    tag_159:\n        /* \"#utility.yul\":4767:4906   */\n      swap1\n      pop\n        /* \"#utility.yul\":4494:4913   */\n      swap2\n      swap1\n      pop\n      jump\t// out\n        /* \"#utility.yul\":4919:5093   */\n    tag_99:\n        /* \"#utility.yul\":5059:5085   */\n      0x496e636f7272656374207072656d69756d20616d6f756e740000000000000000\n        /* \"#utility.yul\":5055:5056   */\n      0x00\n        /* \"#utility.yul\":5047:5053   */\n      dup3\n        /* \"#utility.yul\":5043:5057   */\n      add\n        /* \"#utility.yul\":5036:5086   */\n      mstore\n        /* \"#utility.yul\":4919:5093   */\n      pop\n      jump\t// out\n        /* \"#utility.yul\":5099:5465   */\n    tag_100:\n        /* \"#utility.yul\":5241:5244   */\n      0x00\n        /* \"#utility.yul\":5262:5329   */\n      tag_162\n        /* \"#utility.yul\":5326:5328   */\n      0x18\n        /* \"#utility.yul\":5321:5324   */\n      dup4\n        /* \"#utility.yul\":5262:5329   */\n      tag_96\n      jump\t// in\n    tag_162:\n        /* \"#utility.yul\":5255:5329   */\n      swap2\n      pop\n        /* \"#utility.yul\":5338:5431   */\n      tag_163\n        /* \"#utility.yul\":5427:5430   */\n      dup3\n        /* \"#utility.yul\":5338:5431   */\n      tag_99\n      jump\t// in\n    tag_163:\n        /* \"#utility.yul\":5456:5458   */\n      0x20\n        /* \"#utility.yul\":5451:5454   */\n      dup3\n        /* \"#utility.yul\":5447:5459   */\n      add\n        /* \"#utility.yul\":5440:5459   */\n      swap1\n      pop\n        /* \"#utility.yul\":5099:5465   */\n      swap2\n      swap1\n      pop\n      jump\t// out\n        /* \"#utility.yul\":5471:5890   */\n    tag_55:\n        /* \"#utility.yul\":5637:5641   */\n      0x00\n        /* \"#utility.yul\":5675:5677   */\n      0x20\n        /* \"#utility.yul\":5664:5673   */\n      dup3\n        /* \"#utility.yul\":5660:5678   */\n      add\n        /* \"#utility.yul\":5652:5678   */\n      swap1\n      pop\n        /* \"#utility.yul\":5724:5733   */\n      dup2\n        /* \"#utility.yul\":5718:5722   */\n      dup2\n        /* \"#utility.yul\":5714:5734   */\n      sub\n        /* \"#utility.yul\":5710:5711   */\n      0x00\n        /* \"#utility.yul\":5699:5708   */\n      dup4\n        /* \"#utility.yul\":5695:5712   */\n      add\n        /* \"#utility.yul\":5688:5735   */\n      mstore\n        /* \"#utility.yul\":5752:5883   */\n      tag_165\n        /* \"#utility.yul\":5878:5882   */\n      dup2\n        /* \"#utility.yul\":5752:5883   */\n      tag_100\n      jump\t// in\n    tag_165:\n        /* \"#utility.yul\":5744:5883   */\n      swap1\n      pop\n        /* \"#utility.yul\":5471:5890   */\n      swap2\n      swap1\n      pop\n      jump\t// out\n        /* \"#utility.yul\":5896:6070   */\n    tag_101:\n        /* \"#utility.yul\":6036:6062   */\n      0x506f6c69637920697320616c7265616479206163746976650000000000000000\n        /* \"#utility.yul\":6032:6033   */\n      0x00\n        /* \"#utility.yul\":6024:6030   */\n      dup3\n        /* \"#utility.yul\":6020:6034   */\n      add\n        /* \"#utility.yul\":6013:6063   */\n      mstore\n        /* \"#utility.yul\":5896:6070   */\n      pop\n      jump\t// out\n        /* \"#utility.yul\":6076:6442   */\n    tag_102:\n        /* \"#utility.yul\":6218:6221   */\n      0x00\n        /* \"#utility.yul\":6239:6306   */\n      tag_168\n        /* \"#utility.yul\":6303:6305   */\n      0x18\n        /* \"#utility.yul\":6298:6301   */\n      dup4\n        /* \"#utility.yul\":6239:6306   */\n      tag_96\n      jump\t// in\n    tag_168:\n        /* \"#utility.yul\":6232:6306   */\n      swap2\n      pop\n        /* \"#utility.yul\":6315:6408   */\n      tag_169\n        /* \"#utility.yul\":6404:6407   */\n      dup3\n        /* \"#utility.yul\":6315:6408   */\n      tag_101\n      jump\t// in\n    tag_169:\n        /* \"#utility.yul\":6433:6435   */\n      0x20\n        /* \"#utility.yul\":6428:6431   */\n      dup3\n        /* \"#utility.yul\":6424:6436   */\n      add\n        /* \"#utility.yul\":6417:6436   */\n      swap1\n      pop\n        /* \"#utility.yul\":6076:6442   */\n      swap2\n      swap1\n      pop\n      jump\t// out\n        /* \"#utility.yul\":6448:6867   */\n    tag_58:\n        /* \"#utility.yul\":6614:6618   */\n      0x00\n        /* \"#utility.yul\":6652:6654   */\n      0x20\n        /* \"#utility.yul\":6641:6650   */\n      dup3\n        /* \"#utility.yul\":6637:6655   */\n      add\n        /* \"#utility.yul\":6629:6655   */\n      swap1\n      pop\n        /* \"#utility.yul\":6701:6710   */\n      dup2\n        /* \"#utility.yul\":6695:6699   */\n      dup2\n        /* \"#utility.yul\":6691:6711   */\n      sub\n        /* \"#utility.yul\":6687:6688   */\n      0x00\n        /* \"#utility.yul\":6676:6685   */\n      dup4\n        /* \"#utility.yul\":6672:6689   */\n      add\n        /* \"#utility.yul\":6665:6712   */\n      mstore\n        /* \"#utility.yul\":6729:6860   */\n      tag_171\n        /* \"#utility.yul\":6855:6859   */\n      dup2\n        /* \"#utility.yul\":6729:6860   */\n      tag_102\n      jump\t// in\n    tag_171:\n        /* \"#utility.yul\":6721:6860   */\n      swap1\n      pop\n        /* \"#utility.yul\":6448:6867   */\n      swap2\n      swap1\n      pop\n      jump\t// out\n        /* \"#utility.yul\":6873:7205   */\n    tag_60:\n        /* \"#utility.yul\":6994:6998   */\n      0x00\n        /* \"#utility.yul\":7032:7034   */\n      0x40\n        /* \"#utility.yul\":7021:7030   */\n      dup3\n        /* \"#utility.yul\":7017:7035   */\n      add\n        /* \"#utility.yul\":7009:7035   */\n      swap1\n      pop\n        /* \"#utility.yul\":7045:7116   */\n      tag_173\n        /* \"#utility.yul\":7113:7114   */\n      0x00\n        /* \"#utility.yul\":7102:7111   */\n      dup4\n        /* \"#utility.yul\":7098:7115   */\n      add\n        /* \"#utility.yul\":7089:7095   */\n      dup6\n        /* \"#utility.yul\":7045:7116   */\n      tag_92\n      jump\t// in\n    tag_173:\n        /* \"#utility.yul\":7126:7198   */\n      tag_174\n        /* \"#utility.yul\":7194:7196   */\n      0x20\n        /* \"#utility.yul\":7183:7192   */\n      dup4\n        /* \"#utility.yul\":7179:7197   */\n      add\n        /* \"#utility.yul\":7170:7176   */\n      dup5\n        /* \"#utility.yul\":7126:7198   */\n      tag_92\n      jump\t// in\n    tag_174:\n        /* \"#utility.yul\":6873:7205   */\n      swap4\n      swap3\n      pop\n      pop\n      pop\n      jump\t// out\n        /* \"#utility.yul\":7211:7437   */\n    tag_103:\n        /* \"#utility.yul\":7351:7385   */\n      0x4f6e6c792074686520696e73757265722063616e2063616c6c20746869732066\n        /* \"#utility.yul\":7347:7348   */\n      0x00\n        /* \"#utility.yul\":7339:7345   */\n      dup3\n        /* \"#utility.yul\":7335:7349   */\n      add\n        /* \"#utility.yul\":7328:7386   */\n      mstore\n        /* \"#utility.yul\":7420:7429   */\n      0x756e6374696f6e00000000000000000000000000000000000000000000000000\n        /* \"#utility.yul\":7415:7417   */\n      0x20\n        /* \"#utility.yul\":7407:7413   */\n      dup3\n        /* \"#utility.yul\":7403:7418   */\n      add\n        /* \"#utility.yul\":7396:7430   */\n      mstore\n        /* \"#utility.yul\":7211:7437   */\n      pop\n      jump\t// out\n        /* \"#utility.yul\":7443:7809   */\n    tag_104:\n        /* \"#utility.yul\":7585:7588   */\n      0x00\n        /* \"#utility.yul\":7606:7673   */\n      tag_177\n        /* \"#utility.yul\":7670:7672   */\n      0x27\n        /* \"#utility.yul\":7665:7668   */\n      dup4\n        /* \"#utility.yul\":7606:7673   */\n      tag_96\n      jump\t// in\n    tag_177:\n        /* \"#utility.yul\":7599:7673   */\n      swap2\n      pop\n        /* \"#utility.yul\":7682:7775   */\n      tag_178\n        /* \"#utility.yul\":7771:7774   */\n      dup3\n        /* \"#utility.yul\":7682:7775   */\n      tag_103\n      jump\t// in\n    tag_178:\n        /* \"#utility.yul\":7800:7802   */\n      0x40\n        /* \"#utility.yul\":7795:7798   */\n      dup3\n        /* \"#utility.yul\":7791:7803   */\n      add\n        /* \"#utility.yul\":7784:7803   */\n      swap1\n      pop\n        /* \"#utility.yul\":7443:7809   */\n      swap2\n      swap1\n      pop\n      jump\t// out\n        /* \"#utility.yul\":7815:8234   */\n    tag_64:\n        /* \"#utility.yul\":7981:7985   */\n      0x00\n        /* \"#utility.yul\":8019:8021   */\n      0x20\n        /* \"#utility.yul\":8008:8017   */\n      dup3\n        /* \"#utility.yul\":8004:8022   */\n      add\n        /* \"#utility.yul\":7996:8022   */\n      swap1\n      pop\n        /* \"#utility.yul\":8068:8077   */\n      dup2\n        /* \"#utility.yul\":8062:8066   */\n      dup2\n        /* \"#utility.yul\":8058:8078   */\n      sub\n        /* \"#utility.yul\":8054:8055   */\n      0x00\n        /* \"#utility.yul\":8043:8052   */\n      dup4\n        /* \"#utility.yul\":8039:8056   */\n      add\n        /* \"#utility.yul\":8032:8079   */\n      mstore\n        /* \"#utility.yul\":8096:8227   */\n      tag_180\n        /* \"#utility.yul\":8222:8226   */\n      dup2\n        /* \"#utility.yul\":8096:8227   */\n      tag_104\n      jump\t// in\n    tag_180:\n        /* \"#utility.yul\":8088:8227   */\n      swap1\n      pop\n        /* \"#utility.yul\":7815:8234   */\n      swap2\n      swap1\n      pop\n      jump\t// out\n        /* \"#utility.yul\":8240:8407   */\n    tag_105:\n        /* \"#utility.yul\":8380:8399   */\n      0x506f6c696379206e6f7420616374697665000000000000000000000000000000\n        /* \"#utility.yul\":8376:8377   */\n      0x00\n        /* \"#utility.yul\":8368:8374   */\n      dup3\n        /* \"#utility.yul\":8364:8378   */\n      add\n        /* \"#utility.yul\":8357:8400   */\n      mstore\n        /* \"#utility.yul\":8240:8407   */\n      pop\n      jump\t// out\n        /* \"#utility.yul\":8413:8779   */\n    tag_106:\n        /* \"#utility.yul\":8555:8558   */\n      0x00\n        /* \"#utility.yul\":8576:8643   */\n      tag_183\n        /* \"#utility.yul\":8640:8642   */\n      0x11\n        /* \"#utility.yul\":8635:8638   */\n      dup4\n        /* \"#utility.yul\":8576:8643   */\n      tag_96\n      jump\t// in\n    tag_183:\n        /* \"#utility.yul\":8569:8643   */\n      swap2\n      pop\n        /* \"#utility.yul\":8652:8745   */\n      tag_184\n        /* \"#utility.yul\":8741:8744   */\n      dup3\n        /* \"#utility.yul\":8652:8745   */\n      tag_105\n      jump\t// in\n    tag_184:\n        /* \"#utility.yul\":8770:8772   */\n      0x20\n        /* \"#utility.yul\":8765:8768   */\n      dup3\n        /* \"#utility.yul\":8761:8773   */\n      add\n        /* \"#utility.yul\":8754:8773   */\n      swap1\n      pop\n        /* \"#utility.yul\":8413:8779   */\n      swap2\n      swap1\n      pop\n      jump\t// out\n        /* \"#utility.yul\":8785:9204   */\n    tag_74:\n        /* \"#utility.yul\":8951:8955   */\n      0x00\n        /* \"#utility.yul\":8989:8991   */\n      0x20\n        /* \"#utility.yul\":8978:8987   */\n      dup3\n        /* \"#utility.yul\":8974:8992   */\n      add\n        /* \"#utility.yul\":8966:8992   */\n      swap1\n      pop\n        /* \"#utility.yul\":9038:9047   */\n      dup2\n        /* \"#utility.yul\":9032:9036   */\n      dup2\n        /* \"#utility.yul\":9028:9048   */\n      sub\n        /* \"#utility.yul\":9024:9025   */\n      0x00\n        /* \"#utility.yul\":9013:9022   */\n      dup4\n        /* \"#utility.yul\":9009:9026   */\n      add\n        /* \"#utility.yul\":9002:9049   */\n      mstore\n        /* \"#utility.yul\":9066:9197   */\n      tag_186\n        /* \"#utility.yul\":9192:9196   */\n      dup2\n        /* \"#utility.yul\":9066:9197   */\n      tag_106\n      jump\t// in\n    tag_186:\n        /* \"#utility.yul\":9058:9197   */\n      swap1\n      pop\n        /* \"#utility.yul\":8785:9204   */\n      swap2\n      swap1\n      pop\n      jump\t// out\n\n    auxdata: 0xa2646970667358221220da44c7e6bdb5b4dd5f3bf67a7db204be01e5287c465a7f298651e9eafff7a4c564736f6c63430008160033\n}\n",
				"bytecode": {
					"linkReferences": {},
					"object": "608060405234801561000f575f80fd5b50335f806101000a81548173ffffffffffffffffffffffffffffffffffffffff021916908373ffffffffffffffffffffffffffffffffffffffff160217905550610cfc8061005c5f395ff3fe60806040526004361061007a575f3560e01c8063a9b136511161004d578063a9b1365114610102578063dbc837c51461012a578063e52223bb14610154578063f582a21d146101905761007a565b80630951f7be1461007e5780633ccfd60b146100885780634615f58d1461009e5780639bddb69a146100c6575b5f80fd5b6100866101cc565b005b348015610093575f80fd5b5061009c610476565b005b3480156100a9575f80fd5b506100c460048036038101906100bf9190610925565b610568565b005b3480156100d1575f80fd5b506100ec60048036038101906100e79190610963565b610714565b6040516100f9919061099d565b60405180910390f35b34801561010d575f80fd5b50610128600480360381019061012391906109b6565b610729565b005b348015610135575f80fd5b5061013e61083f565b60405161014b9190610a15565b60405180910390f35b34801561015f575f80fd5b5061017a60048036038101906101759190610963565b610862565b6040516101879190610a48565b60405180910390f35b34801561019b575f80fd5b506101b660048036038101906101b19190610963565b61087f565b6040516101c3919061099d565b60405180910390f35b600960015f3373ffffffffffffffffffffffffffffffffffffffff1673ffffffffffffffffffffffffffffffffffffffff1681526020019081526020015f20541161024c576040517f08c379a000000000000000000000000000000000000000000000000000000000815260040161024390610abb565b60405180910390fd5b60025f3373ffffffffffffffffffffffffffffffffffffffff1673ffffffffffffffffffffffffffffffffffffffff1681526020019081526020015f205434146102cb576040517f08c379a00000000000000000000000000000000000000000000000000000000081526004016102c290610b23565b60405180910390fd5b60035f3373ffffffffffffffffffffffffffffffffffffffff1673ffffffffffffffffffffffffffffffffffffffff1681526020019081526020015f205f9054906101000a900460ff1615610355576040517f08c379a000000000000000000000000000000000000000000000000000000000815260040161034c90610b8b565b60405180910390fd5b600160035f3373ffffffffffffffffffffffffffffffffffffffff1673ffffffffffffffffffffffffffffffffffffffff1681526020019081526020015f205f6101000a81548160ff0219169083151502179055503373ffffffffffffffffffffffffffffffffffffffff167fe3a4e855ca574024873a64ada77dfdb7f1342b982fbfe29edf24be638f20d39860015f3373ffffffffffffffffffffffffffffffffffffffff1673ffffffffffffffffffffffffffffffffffffffff1681526020019081526020015f205460025f3373ffffffffffffffffffffffffffffffffffffffff1673ffffffffffffffffffffffffffffffffffffffff1681526020019081526020015f205460405161046c929190610ba9565b60405180910390a2565b5f8054906101000a900473ffffffffffffffffffffffffffffffffffffffff1673ffffffffffffffffffffffffffffffffffffffff163373ffffffffffffffffffffffffffffffffffffffff1614610503576040517f08c379a00000000000000000000000000000000000000000000000000000000081526004016104fa90610c40565b60405180910390fd5b5f8054906101000a900473ffffffffffffffffffffffffffffffffffffffff1673ffffffffffffffffffffffffffffffffffffffff166108fc4790811502906040515f60405180830381858888f19350505050158015610565573d5f803e3d5ffd5b50565b5f8054906101000a900473ffffffffffffffffffffffffffffffffffffffff1673ffffffffffffffffffffffffffffffffffffffff163373ffffffffffffffffffffffffffffffffffffffff16146105f5576040517f08c379a00000000000000000000000000000000000000000000000000000000081526004016105ec90610c40565b60405180910390fd5b60035f8373ffffffffffffffffffffffffffffffffffffffff1673ffffffffffffffffffffffffffffffffffffffff1681526020019081526020015f205f9054906101000a900460ff1661067e576040517f08c379a000000000000000000000000000000000000000000000000000000000815260040161067590610ca8565b60405180910390fd5b8173ffffffffffffffffffffffffffffffffffffffff166108fc8290811502906040515f60405180830381858888f193505050501580156106c1573d5f803e3d5ffd5b508173ffffffffffffffffffffffffffffffffffffffff167f76b4500f4ad24a8f306b6bfcc914b577976c4344d2dc58c6df455649cfca4e4b82604051610708919061099d565b60405180910390a25050565b6002602052805f5260405f205f915090505481565b5f8054906101000a900473ffffffffffffffffffffffffffffffffffffffff1673ffffffffffffffffffffffffffffffffffffffff163373ffffffffffffffffffffffffffffffffffffffff16146107b6576040517f08c379a00000000000000000000000000000000000000000000000000000000081526004016107ad90610c40565b60405180910390fd5b8160015f8573ffffffffffffffffffffffffffffffffffffffff1673ffffffffffffffffffffffffffffffffffffffff1681526020019081526020015f20819055508060025f8573ffffffffffffffffffffffffffffffffffffffff1673ffffffffffffffffffffffffffffffffffffffff1681526020019081526020015f2081905550505050565b5f8054906101000a900473ffffffffffffffffffffffffffffffffffffffff1681565b6003602052805f5260405f205f915054906101000a900460ff1681565b6001602052805f5260405f205f915090505481565b5f80fd5b5f73ffffffffffffffffffffffffffffffffffffffff82169050919050565b5f6108c182610898565b9050919050565b6108d1816108b7565b81146108db575f80fd5b50565b5f813590506108ec816108c8565b92915050565b5f819050919050565b610904816108f2565b811461090e575f80fd5b50565b5f8135905061091f816108fb565b92915050565b5f806040838503121561093b5761093a610894565b5b5f610948858286016108de565b925050602061095985828601610911565b9150509250929050565b5f6020828403121561097857610977610894565b5b5f610985848285016108de565b91505092915050565b610997816108f2565b82525050565b5f6020820190506109b05f83018461098e565b92915050565b5f805f606084860312156109cd576109cc610894565b5b5f6109da868287016108de565b93505060206109eb86828701610911565b92505060406109fc86828701610911565b9150509250925092565b610a0f816108b7565b82525050565b5f602082019050610a285f830184610a06565b92915050565b5f8115159050919050565b610a4281610a2e565b82525050565b5f602082019050610a5b5f830184610a39565b92915050565b5f82825260208201905092915050565b7f436f76657261676520616d6f756e74206e6f74207365740000000000000000005f82015250565b5f610aa5601783610a61565b9150610ab082610a71565b602082019050919050565b5f6020820190508181035f830152610ad281610a99565b9050919050565b7f496e636f7272656374207072656d69756d20616d6f756e7400000000000000005f82015250565b5f610b0d601883610a61565b9150610b1882610ad9565b602082019050919050565b5f6020820190508181035f830152610b3a81610b01565b9050919050565b7f506f6c69637920697320616c72656164792061637469766500000000000000005f82015250565b5f610b75601883610a61565b9150610b8082610b41565b602082019050919050565b5f6020820190508181035f830152610ba281610b69565b9050919050565b5f604082019050610bbc5f83018561098e565b610bc9602083018461098e565b9392505050565b7f4f6e6c792074686520696e73757265722063616e2063616c6c207468697320665f8201527f756e6374696f6e00000000000000000000000000000000000000000000000000602082015250565b5f610c2a602783610a61565b9150610c3582610bd0565b604082019050919050565b5f6020820190508181035f830152610c5781610c1e565b9050919050565b7f506f6c696379206e6f74206163746976650000000000000000000000000000005f82015250565b5f610c92601183610a61565b9150610c9d82610c5e565b602082019050919050565b5f6020820190508181035f830152610cbf81610c86565b905091905056fea2646970667358221220da44c7e6bdb5b4dd5f3bf67a7db204be01e5287c465a7f298651e9eafff7a4c564736f6c63430008160033",
					"opcodes": "PUSH1 0x80 PUSH1 0x40 MSTORE CALLVALUE DUP1 ISZERO PUSH2 0xF JUMPI PUSH0 DUP1 REVERT JUMPDEST POP CALLER PUSH0 DUP1 PUSH2 0x100 EXP DUP2 SLOAD DUP2 PUSH20 0xFFFFFFFFFFFFFFFFFFFFFFFFFFFFFFFFFFFFFFFF MUL NOT AND SWAP1 DUP4 PUSH20 0xFFFFFFFFFFFFFFFFFFFFFFFFFFFFFFFFFFFFFFFF AND MUL OR SWAP1 SSTORE POP PUSH2 0xCFC DUP1 PUSH2 0x5C PUSH0 CODECOPY PUSH0 RETURN INVALID PUSH1 0x80 PUSH1 0x40 MSTORE PUSH1 0x4 CALLDATASIZE LT PUSH2 0x7A JUMPI PUSH0 CALLDATALOAD PUSH1 0xE0 SHR DUP1 PUSH4 0xA9B13651 GT PUSH2 0x4D JUMPI DUP1 PUSH4 0xA9B13651 EQ PUSH2 0x102 JUMPI DUP1 PUSH4 0xDBC837C5 EQ PUSH2 0x12A JUMPI DUP1 PUSH4 0xE52223BB EQ PUSH2 0x154 JUMPI DUP1 PUSH4 0xF582A21D EQ PUSH2 0x190 JUMPI PUSH2 0x7A JUMP JUMPDEST DUP1 PUSH4 0x951F7BE EQ PUSH2 0x7E JUMPI DUP1 PUSH4 0x3CCFD60B EQ PUSH2 0x88 JUMPI DUP1 PUSH4 0x4615F58D EQ PUSH2 0x9E JUMPI DUP1 PUSH4 0x9BDDB69A EQ PUSH2 0xC6 JUMPI JUMPDEST PUSH0 DUP1 REVERT JUMPDEST PUSH2 0x86 PUSH2 0x1CC JUMP JUMPDEST STOP JUMPDEST CALLVALUE DUP1 ISZERO PUSH2 0x93 JUMPI PUSH0 DUP1 REVERT JUMPDEST POP PUSH2 0x9C PUSH2 0x476 JUMP JUMPDEST STOP JUMPDEST CALLVALUE DUP1 ISZERO PUSH2 0xA9 JUMPI PUSH0 DUP1 REVERT JUMPDEST POP PUSH2 0xC4 PUSH1 0x4 DUP1 CALLDATASIZE SUB DUP2 ADD SWAP1 PUSH2 0xBF SWAP2 SWAP1 PUSH2 0x925 JUMP JUMPDEST PUSH2 0x568 JUMP JUMPDEST STOP JUMPDEST CALLVALUE DUP1 ISZERO PUSH2 0xD1 JUMPI PUSH0 DUP1 REVERT JUMPDEST POP PUSH2 0xEC PUSH1 0x4 DUP1 CALLDATASIZE SUB DUP2 ADD SWAP1 PUSH2 0xE7 SWAP2 SWAP1 PUSH2 0x963 JUMP JUMPDEST PUSH2 0x714 JUMP JUMPDEST PUSH1 0x40 MLOAD PUSH2 0xF9 SWAP2 SWAP1 PUSH2 0x99D JUMP JUMPDEST PUSH1 0x40 MLOAD DUP1 SWAP2 SUB SWAP1 RETURN JUMPDEST CALLVALUE DUP1 ISZERO PUSH2 0x10D JUMPI PUSH0 DUP1 REVERT JUMPDEST POP PUSH2 0x128 PUSH1 0x4 DUP1 CALLDATASIZE SUB DUP2 ADD SWAP1 PUSH2 0x123 SWAP2 SWAP1 PUSH2 0x9B6 JUMP JUMPDEST PUSH2 0x729 JUMP JUMPDEST STOP JUMPDEST CALLVALUE DUP1 ISZERO PUSH2 0x135 JUMPI PUSH0 DUP1 REVERT JUMPDEST POP PUSH2 0x13E PUSH2 0x83F JUMP JUMPDEST PUSH1 0x40 MLOAD PUSH2 0x14B SWAP2 SWAP1 PUSH2 0xA15 JUMP JUMPDEST PUSH1 0x40 MLOAD DUP1 SWAP2 SUB SWAP1 RETURN JUMPDEST CALLVALUE DUP1 ISZERO PUSH2 0x15F JUMPI PUSH0 DUP1 REVERT JUMPDEST POP PUSH2 0x17A PUSH1 0x4 DUP1 CALLDATASIZE SUB DUP2 ADD SWAP1 PUSH2 0x175 SWAP2 SWAP1 PUSH2 0x963 JUMP JUMPDEST PUSH2 0x862 JUMP JUMPDEST PUSH1 0x40 MLOAD PUSH2 0x187 SWAP2 SWAP1 PUSH2 0xA48 JUMP JUMPDEST PUSH1 0x40 MLOAD DUP1 SWAP2 SUB SWAP1 RETURN JUMPDEST CALLVALUE DUP1 ISZERO PUSH2 0x19B JUMPI PUSH0 DUP1 REVERT JUMPDEST POP PUSH2 0x1B6 PUSH1 0x4 DUP1 CALLDATASIZE SUB DUP2 ADD SWAP1 PUSH2 0x1B1 SWAP2 SWAP1 PUSH2 0x963 JUMP JUMPDEST PUSH2 0x87F JUMP JUMPDEST PUSH1 0x40 MLOAD PUSH2 0x1C3 SWAP2 SWAP1 PUSH2 0x99D JUMP JUMPDEST PUSH1 0x40 MLOAD DUP1 SWAP2 SUB SWAP1 RETURN JUMPDEST PUSH1 0x9 PUSH1 0x1 PUSH0 CALLER PUSH20 0xFFFFFFFFFFFFFFFFFFFFFFFFFFFFFFFFFFFFFFFF AND PUSH20 0xFFFFFFFFFFFFFFFFFFFFFFFFFFFFFFFFFFFFFFFF AND DUP2 MSTORE PUSH1 0x20 ADD SWAP1 DUP2 MSTORE PUSH1 0x20 ADD PUSH0 KECCAK256 SLOAD GT PUSH2 0x24C JUMPI PUSH1 0x40 MLOAD PUSH32 0x8C379A000000000000000000000000000000000000000000000000000000000 DUP2 MSTORE PUSH1 0x4 ADD PUSH2 0x243 SWAP1 PUSH2 0xABB JUMP JUMPDEST PUSH1 0x40 MLOAD DUP1 SWAP2 SUB SWAP1 REVERT JUMPDEST PUSH1 0x2 PUSH0 CALLER PUSH20 0xFFFFFFFFFFFFFFFFFFFFFFFFFFFFFFFFFFFFFFFF AND PUSH20 0xFFFFFFFFFFFFFFFFFFFFFFFFFFFFFFFFFFFFFFFF AND DUP2 MSTORE PUSH1 0x20 ADD SWAP1 DUP2 MSTORE PUSH1 0x20 ADD PUSH0 KECCAK256 SLOAD CALLVALUE EQ PUSH2 0x2CB JUMPI PUSH1 0x40 MLOAD PUSH32 0x8C379A000000000000000000000000000000000000000000000000000000000 DUP2 MSTORE PUSH1 0x4 ADD PUSH2 0x2C2 SWAP1 PUSH2 0xB23 JUMP JUMPDEST PUSH1 0x40 MLOAD DUP1 SWAP2 SUB SWAP1 REVERT JUMPDEST PUSH1 0x3 PUSH0 CALLER PUSH20 0xFFFFFFFFFFFFFFFFFFFFFFFFFFFFFFFFFFFFFFFF AND PUSH20 0xFFFFFFFFFFFFFFFFFFFFFFFFFFFFFFFFFFFFFFFF AND DUP2 MSTORE PUSH1 0x20 ADD SWAP1 DUP2 MSTORE PUSH1 0x20 ADD PUSH0 KECCAK256 PUSH0 SWAP1 SLOAD SWAP1 PUSH2 0x100 EXP SWAP1 DIV PUSH1 0xFF AND ISZERO PUSH2 0x355 JUMPI PUSH1 0x40 MLOAD PUSH32 0x8C379A000000000000000000000000000000000000000000000000000000000 DUP2 MSTORE PUSH1 0x4 ADD PUSH2 0x34C SWAP1 PUSH2 0xB8B JUMP JUMPDEST PUSH1 0x40 MLOAD DUP1 SWAP2 SUB SWAP1 REVERT JUMPDEST PUSH1 0x1 PUSH1 0x3 PUSH0 CALLER PUSH20 0xFFFFFFFFFFFFFFFFFFFFFFFFFFFFFFFFFFFFFFFF AND PUSH20 0xFFFFFFFFFFFFFFFFFFFFFFFFFFFFFFFFFFFFFFFF AND DUP2 MSTORE PUSH1 0x20 ADD SWAP1 DUP2 MSTORE PUSH1 0x20 ADD PUSH0 KECCAK256 PUSH0 PUSH2 0x100 EXP DUP2 SLOAD DUP2 PUSH1 0xFF MUL NOT AND SWAP1 DUP4 ISZERO ISZERO MUL OR SWAP1 SSTORE POP CALLER PUSH20 0xFFFFFFFFFFFFFFFFFFFFFFFFFFFFFFFFFFFFFFFF AND PUSH32 0xE3A4E855CA574024873A64ADA77DFDB7F1342B982FBFE29EDF24BE638F20D398 PUSH1 0x1 PUSH0 CALLER PUSH20 0xFFFFFFFFFFFFFFFFFFFFFFFFFFFFFFFFFFFFFFFF AND PUSH20 0xFFFFFFFFFFFFFFFFFFFFFFFFFFFFFFFFFFFFFFFF AND DUP2 MSTORE PUSH1 0x20 ADD SWAP1 DUP2 MSTORE PUSH1 0x20 ADD PUSH0 KECCAK256 SLOAD PUSH1 0x2 PUSH0 CALLER PUSH20 0xFFFFFFFFFFFFFFFFFFFFFFFFFFFFFFFFFFFFFFFF AND PUSH20 0xFFFFFFFFFFFFFFFFFFFFFFFFFFFFFFFFFFFFFFFF AND DUP2 MSTORE PUSH1 0x20 ADD SWAP1 DUP2 MSTORE PUSH1 0x20 ADD PUSH0 KECCAK256 SLOAD PUSH1 0x40 MLOAD PUSH2 0x46C SWAP3 SWAP2 SWAP1 PUSH2 0xBA9 JUMP JUMPDEST PUSH1 0x40 MLOAD DUP1 SWAP2 SUB SWAP1 LOG2 JUMP JUMPDEST PUSH0 DUP1 SLOAD SWAP1 PUSH2 0x100 EXP SWAP1 DIV PUSH20 0xFFFFFFFFFFFFFFFFFFFFFFFFFFFFFFFFFFFFFFFF AND PUSH20 0xFFFFFFFFFFFFFFFFFFFFFFFFFFFFFFFFFFFFFFFF AND CALLER PUSH20 0xFFFFFFFFFFFFFFFFFFFFFFFFFFFFFFFFFFFFFFFF AND EQ PUSH2 0x503 JUMPI PUSH1 0x40 MLOAD PUSH32 0x8C379A000000000000000000000000000000000000000000000000000000000 DUP2 MSTORE PUSH1 0x4 ADD PUSH2 0x4FA SWAP1 PUSH2 0xC40 JUMP JUMPDEST PUSH1 0x40 MLOAD DUP1 SWAP2 SUB SWAP1 REVERT JUMPDEST PUSH0 DUP1 SLOAD SWAP1 PUSH2 0x100 EXP SWAP1 DIV PUSH20 0xFFFFFFFFFFFFFFFFFFFFFFFFFFFFFFFFFFFFFFFF AND PUSH20 0xFFFFFFFFFFFFFFFFFFFFFFFFFFFFFFFFFFFFFFFF AND PUSH2 0x8FC SELFBALANCE SWAP1 DUP2 ISZERO MUL SWAP1 PUSH1 0x40 MLOAD PUSH0 PUSH1 0x40 MLOAD DUP1 DUP4 SUB DUP2 DUP6 DUP9 DUP9 CALL SWAP4 POP POP POP POP ISZERO DUP1 ISZERO PUSH2 0x565 JUMPI RETURNDATASIZE PUSH0 DUP1 RETURNDATACOPY RETURNDATASIZE PUSH0 REVERT JUMPDEST POP JUMP JUMPDEST PUSH0 DUP1 SLOAD SWAP1 PUSH2 0x100 EXP SWAP1 DIV PUSH20 0xFFFFFFFFFFFFFFFFFFFFFFFFFFFFFFFFFFFFFFFF AND PUSH20 0xFFFFFFFFFFFFFFFFFFFFFFFFFFFFFFFFFFFFFFFF AND CALLER PUSH20 0xFFFFFFFFFFFFFFFFFFFFFFFFFFFFFFFFFFFFFFFF AND EQ PUSH2 0x5F5 JUMPI PUSH1 0x40 MLOAD PUSH32 0x8C379A000000000000000000000000000000000000000000000000000000000 DUP2 MSTORE PUSH1 0x4 ADD PUSH2 0x5EC SWAP1 PUSH2 0xC40 JUMP JUMPDEST PUSH1 0x40 MLOAD DUP1 SWAP2 SUB SWAP1 REVERT JUMPDEST PUSH1 0x3 PUSH0 DUP4 PUSH20 0xFFFFFFFFFFFFFFFFFFFFFFFFFFFFFFFFFFFFFFFF AND PUSH20 0xFFFFFFFFFFFFFFFFFFFFFFFFFFFFFFFFFFFFFFFF AND DUP2 MSTORE PUSH1 0x20 ADD SWAP1 DUP2 MSTORE PUSH1 0x20 ADD PUSH0 KECCAK256 PUSH0 SWAP1 SLOAD SWAP1 PUSH2 0x100 EXP SWAP1 DIV PUSH1 0xFF AND PUSH2 0x67E JUMPI PUSH1 0x40 MLOAD PUSH32 0x8C379A000000000000000000000000000000000000000000000000000000000 DUP2 MSTORE PUSH1 0x4 ADD PUSH2 0x675 SWAP1 PUSH2 0xCA8 JUMP JUMPDEST PUSH1 0x40 MLOAD DUP1 SWAP2 SUB SWAP1 REVERT JUMPDEST DUP2 PUSH20 0xFFFFFFFFFFFFFFFFFFFFFFFFFFFFFFFFFFFFFFFF AND PUSH2 0x8FC DUP3 SWAP1 DUP2 ISZERO MUL SWAP1 PUSH1 0x40 MLOAD PUSH0 PUSH1 0x40 MLOAD DUP1 DUP4 SUB DUP2 DUP6 DUP9 DUP9 CALL SWAP4 POP POP POP POP ISZERO DUP1 ISZERO PUSH2 0x6C1 JUMPI RETURNDATASIZE PUSH0 DUP1 RETURNDATACOPY RETURNDATASIZE PUSH0 REVERT JUMPDEST POP DUP2 PUSH20 0xFFFFFFFFFFFFFFFFFFFFFFFFFFFFFFFFFFFFFFFF AND PUSH32 0x76B4500F4AD24A8F306B6BFCC914B577976C4344D2DC58C6DF455649CFCA4E4B DUP3 PUSH1 0x40 MLOAD PUSH2 0x708 SWAP2 SWAP1 PUSH2 0x99D JUMP JUMPDEST PUSH1 0x40 MLOAD DUP1 SWAP2 SUB SWAP1 LOG2 POP POP JUMP JUMPDEST PUSH1 0x2 PUSH1 0x20 MSTORE DUP1 PUSH0 MSTORE PUSH1 0x40 PUSH0 KECCAK256 PUSH0 SWAP2 POP SWAP1 POP SLOAD DUP2 JUMP JUMPDEST PUSH0 DUP1 SLOAD SWAP1 PUSH2 0x100 EXP SWAP1 DIV PUSH20 0xFFFFFFFFFFFFFFFFFFFFFFFFFFFFFFFFFFFFFFFF AND PUSH20 0xFFFFFFFFFFFFFFFFFFFFFFFFFFFFFFFFFFFFFFFF AND CALLER PUSH20 0xFFFFFFFFFFFFFFFFFFFFFFFFFFFFFFFFFFFFFFFF AND EQ PUSH2 0x7B6 JUMPI PUSH1 0x40 MLOAD PUSH32 0x8C379A000000000000000000000000000000000000000000000000000000000 DUP2 MSTORE PUSH1 0x4 ADD PUSH2 0x7AD SWAP1 PUSH2 0xC40 JUMP JUMPDEST PUSH1 0x40 MLOAD DUP1 SWAP2 SUB SWAP1 REVERT JUMPDEST DUP2 PUSH1 0x1 PUSH0 DUP6 PUSH20 0xFFFFFFFFFFFFFFFFFFFFFFFFFFFFFFFFFFFFFFFF AND PUSH20 0xFFFFFFFFFFFFFFFFFFFFFFFFFFFFFFFFFFFFFFFF AND DUP2 MSTORE PUSH1 0x20 ADD SWAP1 DUP2 MSTORE PUSH1 0x20 ADD PUSH0 KECCAK256 DUP2 SWAP1 SSTORE POP DUP1 PUSH1 0x2 PUSH0 DUP6 PUSH20 0xFFFFFFFFFFFFFFFFFFFFFFFFFFFFFFFFFFFFFFFF AND PUSH20 0xFFFFFFFFFFFFFFFFFFFFFFFFFFFFFFFFFFFFFFFF AND DUP2 MSTORE PUSH1 0x20 ADD SWAP1 DUP2 MSTORE PUSH1 0x20 ADD PUSH0 KECCAK256 DUP2 SWAP1 SSTORE POP POP POP POP JUMP JUMPDEST PUSH0 DUP1 SLOAD SWAP1 PUSH2 0x100 EXP SWAP1 DIV PUSH20 0xFFFFFFFFFFFFFFFFFFFFFFFFFFFFFFFFFFFFFFFF AND DUP2 JUMP JUMPDEST PUSH1 0x3 PUSH1 0x20 MSTORE DUP1 PUSH0 MSTORE PUSH1 0x40 PUSH0 KECCAK256 PUSH0 SWAP2 POP SLOAD SWAP1 PUSH2 0x100 EXP SWAP1 DIV PUSH1 0xFF AND DUP2 JUMP JUMPDEST PUSH1 0x1 PUSH1 0x20 MSTORE DUP1 PUSH0 MSTORE PUSH1 0x40 PUSH0 KECCAK256 PUSH0 SWAP2 POP SWAP1 POP SLOAD DUP2 JUMP JUMPDEST PUSH0 DUP1 REVERT JUMPDEST PUSH0 PUSH20 0xFFFFFFFFFFFFFFFFFFFFFFFFFFFFFFFFFFFFFFFF DUP3 AND SWAP1 POP SWAP2 SWAP1 POP JUMP JUMPDEST PUSH0 PUSH2 0x8C1 DUP3 PUSH2 0x898 JUMP JUMPDEST SWAP1 POP SWAP2 SWAP1 POP JUMP JUMPDEST PUSH2 0x8D1 DUP2 PUSH2 0x8B7 JUMP JUMPDEST DUP2 EQ PUSH2 0x8DB JUMPI PUSH0 DUP1 REVERT JUMPDEST POP JUMP JUMPDEST PUSH0 DUP2 CALLDATALOAD SWAP1 POP PUSH2 0x8EC DUP2 PUSH2 0x8C8 JUMP JUMPDEST SWAP3 SWAP2 POP POP JUMP JUMPDEST PUSH0 DUP2 SWAP1 POP SWAP2 SWAP1 POP JUMP JUMPDEST PUSH2 0x904 DUP2 PUSH2 0x8F2 JUMP JUMPDEST DUP2 EQ PUSH2 0x90E JUMPI PUSH0 DUP1 REVERT JUMPDEST POP JUMP JUMPDEST PUSH0 DUP2 CALLDATALOAD SWAP1 POP PUSH2 0x91F DUP2 PUSH2 0x8FB JUMP JUMPDEST SWAP3 SWAP2 POP POP JUMP JUMPDEST PUSH0 DUP1 PUSH1 0x40 DUP4 DUP6 SUB SLT ISZERO PUSH2 0x93B JUMPI PUSH2 0x93A PUSH2 0x894 JUMP JUMPDEST JUMPDEST PUSH0 PUSH2 0x948 DUP6 DUP3 DUP7 ADD PUSH2 0x8DE JUMP JUMPDEST SWAP3 POP POP PUSH1 0x20 PUSH2 0x959 DUP6 DUP3 DUP7 ADD PUSH2 0x911 JUMP JUMPDEST SWAP2 POP POP SWAP3 POP SWAP3 SWAP1 POP JUMP JUMPDEST PUSH0 PUSH1 0x20 DUP3 DUP5 SUB SLT ISZERO PUSH2 0x978 JUMPI PUSH2 0x977 PUSH2 0x894 JUMP JUMPDEST JUMPDEST PUSH0 PUSH2 0x985 DUP5 DUP3 DUP6 ADD PUSH2 0x8DE JUMP JUMPDEST SWAP2 POP POP SWAP3 SWAP2 POP POP JUMP JUMPDEST PUSH2 0x997 DUP2 PUSH2 0x8F2 JUMP JUMPDEST DUP3 MSTORE POP POP JUMP JUMPDEST PUSH0 PUSH1 0x20 DUP3 ADD SWAP1 POP PUSH2 0x9B0 PUSH0 DUP4 ADD DUP5 PUSH2 0x98E JUMP JUMPDEST SWAP3 SWAP2 POP POP JUMP JUMPDEST PUSH0 DUP1 PUSH0 PUSH1 0x60 DUP5 DUP7 SUB SLT ISZERO PUSH2 0x9CD JUMPI PUSH2 0x9CC PUSH2 0x894 JUMP JUMPDEST JUMPDEST PUSH0 PUSH2 0x9DA DUP7 DUP3 DUP8 ADD PUSH2 0x8DE JUMP JUMPDEST SWAP4 POP POP PUSH1 0x20 PUSH2 0x9EB DUP7 DUP3 DUP8 ADD PUSH2 0x911 JUMP JUMPDEST SWAP3 POP POP PUSH1 0x40 PUSH2 0x9FC DUP7 DUP3 DUP8 ADD PUSH2 0x911 JUMP JUMPDEST SWAP2 POP POP SWAP3 POP SWAP3 POP SWAP3 JUMP JUMPDEST PUSH2 0xA0F DUP2 PUSH2 0x8B7 JUMP JUMPDEST DUP3 MSTORE POP POP JUMP JUMPDEST PUSH0 PUSH1 0x20 DUP3 ADD SWAP1 POP PUSH2 0xA28 PUSH0 DUP4 ADD DUP5 PUSH2 0xA06 JUMP JUMPDEST SWAP3 SWAP2 POP POP JUMP JUMPDEST PUSH0 DUP2 ISZERO ISZERO SWAP1 POP SWAP2 SWAP1 POP JUMP JUMPDEST PUSH2 0xA42 DUP2 PUSH2 0xA2E JUMP JUMPDEST DUP3 MSTORE POP POP JUMP JUMPDEST PUSH0 PUSH1 0x20 DUP3 ADD SWAP1 POP PUSH2 0xA5B PUSH0 DUP4 ADD DUP5 PUSH2 0xA39 JUMP JUMPDEST SWAP3 SWAP2 POP POP JUMP JUMPDEST PUSH0 DUP3 DUP3 MSTORE PUSH1 0x20 DUP3 ADD SWAP1 POP SWAP3 SWAP2 POP POP JUMP JUMPDEST PUSH32 0x436F76657261676520616D6F756E74206E6F7420736574000000000000000000 PUSH0 DUP3 ADD MSTORE POP JUMP JUMPDEST PUSH0 PUSH2 0xAA5 PUSH1 0x17 DUP4 PUSH2 0xA61 JUMP JUMPDEST SWAP2 POP PUSH2 0xAB0 DUP3 PUSH2 0xA71 JUMP JUMPDEST PUSH1 0x20 DUP3 ADD SWAP1 POP SWAP2 SWAP1 POP JUMP JUMPDEST PUSH0 PUSH1 0x20 DUP3 ADD SWAP1 POP DUP2 DUP2 SUB PUSH0 DUP4 ADD MSTORE PUSH2 0xAD2 DUP2 PUSH2 0xA99 JUMP JUMPDEST SWAP1 POP SWAP2 SWAP1 POP JUMP JUMPDEST PUSH32 0x496E636F7272656374207072656D69756D20616D6F756E740000000000000000 PUSH0 DUP3 ADD MSTORE POP JUMP JUMPDEST PUSH0 PUSH2 0xB0D PUSH1 0x18 DUP4 PUSH2 0xA61 JUMP JUMPDEST SWAP2 POP PUSH2 0xB18 DUP3 PUSH2 0xAD9 JUMP JUMPDEST PUSH1 0x20 DUP3 ADD SWAP1 POP SWAP2 SWAP1 POP JUMP JUMPDEST PUSH0 PUSH1 0x20 DUP3 ADD SWAP1 POP DUP2 DUP2 SUB PUSH0 DUP4 ADD MSTORE PUSH2 0xB3A DUP2 PUSH2 0xB01 JUMP JUMPDEST SWAP1 POP SWAP2 SWAP1 POP JUMP JUMPDEST PUSH32 0x506F6C69637920697320616C7265616479206163746976650000000000000000 PUSH0 DUP3 ADD MSTORE POP JUMP JUMPDEST PUSH0 PUSH2 0xB75 PUSH1 0x18 DUP4 PUSH2 0xA61 JUMP JUMPDEST SWAP2 POP PUSH2 0xB80 DUP3 PUSH2 0xB41 JUMP JUMPDEST PUSH1 0x20 DUP3 ADD SWAP1 POP SWAP2 SWAP1 POP JUMP JUMPDEST PUSH0 PUSH1 0x20 DUP3 ADD SWAP1 POP DUP2 DUP2 SUB PUSH0 DUP4 ADD MSTORE PUSH2 0xBA2 DUP2 PUSH2 0xB69 JUMP JUMPDEST SWAP1 POP SWAP2 SWAP1 POP JUMP JUMPDEST PUSH0 PUSH1 0x40 DUP3 ADD SWAP1 POP PUSH2 0xBBC PUSH0 DUP4 ADD DUP6 PUSH2 0x98E JUMP JUMPDEST PUSH2 0xBC9 PUSH1 0x20 DUP4 ADD DUP5 PUSH2 0x98E JUMP JUMPDEST SWAP4 SWAP3 POP POP POP JUMP JUMPDEST PUSH32 0x4F6E6C792074686520696E73757265722063616E2063616C6C20746869732066 PUSH0 DUP3 ADD MSTORE PUSH32 0x756E6374696F6E00000000000000000000000000000000000000000000000000 PUSH1 0x20 DUP3 ADD MSTORE POP JUMP JUMPDEST PUSH0 PUSH2 0xC2A PUSH1 0x27 DUP4 PUSH2 0xA61 JUMP JUMPDEST SWAP2 POP PUSH2 0xC35 DUP3 PUSH2 0xBD0 JUMP JUMPDEST PUSH1 0x40 DUP3 ADD SWAP1 POP SWAP2 SWAP1 POP JUMP JUMPDEST PUSH0 PUSH1 0x20 DUP3 ADD SWAP1 POP DUP2 DUP2 SUB PUSH0 DUP4 ADD MSTORE PUSH2 0xC57 DUP2 PUSH2 0xC1E JUMP JUMPDEST SWAP1 POP SWAP2 SWAP1 POP JUMP JUMPDEST PUSH32 0x506F6C696379206E6F7420616374697665000000000000000000000000000000 PUSH0 DUP3 ADD MSTORE POP JUMP JUMPDEST PUSH0 PUSH2 0xC92 PUSH1 0x11 DUP4 PUSH2 0xA61 JUMP JUMPDEST SWAP2 POP PUSH2 0xC9D DUP3 PUSH2 0xC5E JUMP JUMPDEST PUSH1 0x20 DUP3 ADD SWAP1 POP SWAP2 SWAP1 POP JUMP JUMPDEST PUSH0 PUSH1 0x20 DUP3 ADD SWAP1 POP DUP2 DUP2 SUB PUSH0 DUP4 ADD MSTORE PUSH2 0xCBF DUP2 PUSH2 0xC86 JUMP JUMPDEST SWAP1 POP SWAP2 SWAP1 POP JUMP INVALID LOG2 PUSH5 0x6970667358 0x22 SLT KECCAK256 0xDA PREVRANDAO 0xC7 0xE6 0xBD 0xB5 0xB4 0xDD PUSH0 EXTCODESIZE 0xF6 PUSH27 0x7DB204BE01E5287C465A7F298651E9EAFFF7A4C564736F6C634300 ADDMOD AND STOP CALLER "
				},
				"gasEstimates": {
					"creation": {
						"codeDepositCost": "664800",
						"executionCost": "24959",
						"totalCost": "689759"
					},
					"external": {
						"coverageAmounts(address)": "2868",
						"insurer()": "2527",
						"isPolicyActive(address)": "2877",
						"premiums(address)": "2869",
						"processFlightDelay(address,uint256)": "infinite",
						"purchasePolicy()": "infinite",
						"setPremium(address,uint256,uint256)": "infinite",
						"withdraw()": "infinite"
					}
				},
				"methodIdentifiers": {
					"coverageAmounts(address)": "f582a21d",
					"insurer()": "dbc837c5",
					"isPolicyActive(address)": "e52223bb",
					"premiums(address)": "9bddb69a",
					"processFlightDelay(address,uint256)": "4615f58d",
					"purchasePolicy()": "0951f7be",
					"setPremium(address,uint256,uint256)": "a9b13651",
					"withdraw()": "3ccfd60b"
				}
			},
			"storageLayout": {
				"storage": [
					{
						"astId": 3,
						"contract": "contracts/FlightPolicy.sol:FlightInsuranceContract",
						"label": "insurer",
						"offset": 0,
						"slot": "0",
						"type": "t_address"
					},
					{
						"astId": 7,
						"contract": "contracts/FlightPolicy.sol:FlightInsuranceContract",
						"label": "coverageAmounts",
						"offset": 0,
						"slot": "1",
						"type": "t_mapping(t_address,t_uint256)"
					},
					{
						"astId": 11,
						"contract": "contracts/FlightPolicy.sol:FlightInsuranceContract",
						"label": "premiums",
						"offset": 0,
						"slot": "2",
						"type": "t_mapping(t_address,t_uint256)"
					},
					{
						"astId": 15,
						"contract": "contracts/FlightPolicy.sol:FlightInsuranceContract",
						"label": "isPolicyActive",
						"offset": 0,
						"slot": "3",
						"type": "t_mapping(t_address,t_bool)"
					}
				],
				"types": {
					"t_address": {
						"encoding": "inplace",
						"label": "address",
						"numberOfBytes": "20"
					},
					"t_bool": {
						"encoding": "inplace",
						"label": "bool",
						"numberOfBytes": "1"
					},
					"t_mapping(t_address,t_bool)": {
						"encoding": "mapping",
						"key": "t_address",
						"label": "mapping(address => bool)",
						"numberOfBytes": "32",
						"value": "t_bool"
					},
					"t_mapping(t_address,t_uint256)": {
						"encoding": "mapping",
						"key": "t_address",
						"label": "mapping(address => uint256)",
						"numberOfBytes": "32",
						"value": "t_uint256"
					},
					"t_uint256": {
						"encoding": "inplace",
						"label": "uint256",
						"numberOfBytes": "32"
					}
				}
			},
			"userdoc": {
				"kind": "user",
				"methods": {},
				"version": 1
			}
		}
	}
}